{
  "contractName": "CrossChainSwapV3",
  "abi": [
    {
      "inputs": [
        {
          "internalType": "address",
          "name": "_swapRouterAddress",
          "type": "address"
        },
        {
          "internalType": "address",
          "name": "_feeTokenAddress",
          "type": "address"
        },
        {
          "internalType": "address",
          "name": "_tokenBridgeAddress",
          "type": "address"
        },
        {
          "internalType": "address",
          "name": "_wrappedNativeAddress",
          "type": "address"
        }
      ],
      "stateMutability": "nonpayable",
      "type": "constructor"
    },
    {
      "anonymous": false,
      "inputs": [
        {
          "indexed": true,
          "internalType": "address",
          "name": "_recipient",
          "type": "address"
        },
        {
          "indexed": false,
          "internalType": "address",
          "name": "_tokenOut",
          "type": "address"
        },
        {
          "indexed": false,
          "internalType": "address",
          "name": "_from",
          "type": "address"
        },
        {
          "indexed": false,
          "internalType": "uint256",
          "name": "_amountOut",
          "type": "uint256"
        },
        {
          "indexed": false,
          "internalType": "uint8",
          "name": "_success",
          "type": "uint8"
        }
      ],
      "name": "SwapResult",
      "type": "event"
    },
    {
      "inputs": [],
      "name": "FEE_TOKEN_ADDRESS",
      "outputs": [
        {
          "internalType": "address",
          "name": "",
          "type": "address"
        }
      ],
      "stateMutability": "view",
      "type": "function"
    },
    {
      "inputs": [],
      "name": "SWAP_ROUTER",
      "outputs": [
        {
          "internalType": "contract IUniswapRouter",
          "name": "",
          "type": "address"
        }
      ],
      "stateMutability": "view",
      "type": "function"
    },
    {
      "inputs": [],
      "name": "TOKEN_BRIDGE_ADDRESS",
      "outputs": [
        {
          "internalType": "address",
          "name": "",
          "type": "address"
        }
      ],
      "stateMutability": "view",
      "type": "function"
    },
    {
      "inputs": [],
      "name": "TypeExactIn",
      "outputs": [
        {
          "internalType": "uint8",
          "name": "",
          "type": "uint8"
        }
      ],
      "stateMutability": "view",
      "type": "function"
    },
    {
      "inputs": [],
      "name": "TypeExactOut",
      "outputs": [
        {
          "internalType": "uint8",
          "name": "",
          "type": "uint8"
        }
      ],
      "stateMutability": "view",
      "type": "function"
    },
    {
      "inputs": [],
      "name": "WRAPPED_NATIVE",
      "outputs": [
        {
          "internalType": "address",
          "name": "",
          "type": "address"
        }
      ],
      "stateMutability": "view",
      "type": "function"
    },
    {
      "stateMutability": "payable",
      "type": "receive"
    },
    {
      "inputs": [
        {
          "internalType": "bytes",
          "name": "encodedVaa",
          "type": "bytes"
        }
      ],
      "name": "recvAndSwapExactNativeIn",
      "outputs": [
        {
          "internalType": "uint256",
          "name": "amountOut",
          "type": "uint256"
        }
      ],
      "stateMutability": "nonpayable",
      "type": "function"
    },
    {
      "inputs": [
        {
          "internalType": "bytes",
          "name": "encodedVaa",
          "type": "bytes"
        }
      ],
      "name": "recvAndSwapExactNativeOut",
      "outputs": [
        {
          "internalType": "uint256",
          "name": "amountInUsed",
          "type": "uint256"
        }
      ],
      "stateMutability": "nonpayable",
      "type": "function"
    },
    {
      "inputs": [
        {
          "components": [
            {
              "internalType": "uint256",
              "name": "amountIn",
              "type": "uint256"
            },
            {
              "internalType": "uint256",
              "name": "amountOutMinimum",
              "type": "uint256"
            },
            {
              "internalType": "uint256",
              "name": "targetAmountOutMinimum",
              "type": "uint256"
            },
            {
              "internalType": "bytes32",
              "name": "targetChainRecipient",
              "type": "bytes32"
            },
            {
              "internalType": "uint256",
              "name": "deadline",
              "type": "uint256"
            },
            {
              "internalType": "uint24",
              "name": "poolFee",
              "type": "uint24"
            }
          ],
          "internalType": "struct SwapHelper.ExactInParameters",
          "name": "swapParams",
          "type": "tuple"
        },
        {
          "internalType": "address[]",
          "name": "path",
          "type": "address[]"
        },
        {
          "internalType": "uint256",
          "name": "relayerFee",
          "type": "uint256"
        },
        {
          "internalType": "uint16",
          "name": "targetChainId",
          "type": "uint16"
        },
        {
          "internalType": "bytes32",
          "name": "targetContractAddress",
          "type": "bytes32"
        },
        {
          "internalType": "uint32",
          "name": "nonce",
          "type": "uint32"
        }
      ],
      "name": "swapExactNativeInAndTransfer",
      "outputs": [],
      "stateMutability": "payable",
      "type": "function"
    },
    {
      "inputs": [
        {
          "components": [
            {
              "internalType": "uint256",
              "name": "amountOut",
              "type": "uint256"
            },
            {
              "internalType": "uint256",
              "name": "amountInMaximum",
              "type": "uint256"
            },
            {
              "internalType": "uint256",
              "name": "targetAmountOut",
              "type": "uint256"
            },
            {
              "internalType": "bytes32",
              "name": "targetChainRecipient",
              "type": "bytes32"
            },
            {
              "internalType": "uint256",
              "name": "deadline",
              "type": "uint256"
            },
            {
              "internalType": "uint24",
              "name": "poolFee",
              "type": "uint24"
            }
          ],
          "internalType": "struct SwapHelper.ExactOutParameters",
          "name": "swapParams",
          "type": "tuple"
        },
        {
          "internalType": "address[]",
          "name": "path",
          "type": "address[]"
        },
        {
          "internalType": "uint256",
          "name": "relayerFee",
          "type": "uint256"
        },
        {
          "internalType": "uint16",
          "name": "targetChainId",
          "type": "uint16"
        },
        {
          "internalType": "bytes32",
          "name": "targetContractAddress",
          "type": "bytes32"
        },
        {
          "internalType": "uint32",
          "name": "nonce",
          "type": "uint32"
        }
      ],
      "name": "swapExactNativeOutAndTransfer",
      "outputs": [],
      "stateMutability": "payable",
      "type": "function"
    }
  ],
  "bytecode": "0x610140604052600160ff1660809060ff1660f81b815250600260ff1660a09060ff1660f81b8152503480156200003457600080fd5b5060405162003c2f38038062003c2f83398181016040528101906200005a919062000159565b8373ffffffffffffffffffffffffffffffffffffffff1660c08173ffffffffffffffffffffffffffffffffffffffff1660601b815250508273ffffffffffffffffffffffffffffffffffffffff1660e08173ffffffffffffffffffffffffffffffffffffffff1660601b815250508173ffffffffffffffffffffffffffffffffffffffff166101008173ffffffffffffffffffffffffffffffffffffffff1660601b815250508073ffffffffffffffffffffffffffffffffffffffff166101208173ffffffffffffffffffffffffffffffffffffffff1660601b815250505050505062000213565b6000815190506200015381620001f9565b92915050565b600080600080608085870312156200017057600080fd5b6000620001808782880162000142565b9450506020620001938782880162000142565b9350506040620001a68782880162000142565b9250506060620001b98782880162000142565b91505092959194509250565b6000620001d282620001d9565b9050919050565b600073ffffffffffffffffffffffffffffffffffffffff82169050919050565b6200020481620001c5565b81146200021057600080fd5b50565b60805160f81c60a05160f81c60c05160601c60e05160601c6101005160601c6101205160601c6139076200032860003980610372528061070652806108ef52806109595280610d5d52806111f152806116215250806108cb5280610c0f5280610c36528061100f528061103a52806117ad52508061027b52806102cf52806105da5280610a085280610bee5280610c725280610e0c5280610fee5280611076528061114e528061129652806114c2528061158652806115da52508061042e528061053052806108a7528061131b528061141152806115a75280611cc25280611e5c5280611f0a5280611fb75250806102575280610fa152806111265250806102a75280610ba1528061177f52506139076000f3fe6080604052600436106100955760003560e01c8063d999984d11610059578063d999984d1461018a578063dc41746d146101b5578063e7ab2f93146101d1578063f49cf319146101ed578063fa44e05f1461022a5761009c565b80630d4e8fc4146100a1578063331ab6f2146100cc5780633a988e80146100f7578063c600589314610134578063c8bd09871461015f5761009c565b3661009c57005b600080fd5b3480156100ad57600080fd5b506100b6610255565b6040516100c391906134cc565b60405180910390f35b3480156100d857600080fd5b506100e1610279565b6040516100ee91906131eb565b60405180910390f35b34801561010357600080fd5b5061011e60048036038101906101199190612866565b61029d565b60405161012b91906134b1565b60405180910390f35b34801561014057600080fd5b506101496108a5565b604051610156919061333e565b60405180910390f35b34801561016b57600080fd5b506101746108c9565b60405161018191906131eb565b60405180910390f35b34801561019657600080fd5b5061019f6108ed565b6040516101ac91906131eb565b60405180910390f35b6101cf60048036038101906101ca9190612916565b610911565b005b6101eb60048036038101906101e691906129c1565b610d15565b005b3480156101f957600080fd5b50610214600480360381019061020f9190612866565b61111c565b60405161022191906134b1565b60405180910390f35b34801561023657600080fd5b5061023f61177d565b60405161024c91906134cc565b60405180910390f35b7f000000000000000000000000000000000000000000000000000000000000000081565b7f000000000000000000000000000000000000000000000000000000000000000081565b6000806102cb84847f00000000000000000000000000000000000000000000000000000000000000006117a1565b90507f000000000000000000000000000000000000000000000000000000000000000073ffffffffffffffffffffffffffffffffffffffff168160c0015160006002811061031557fe5b602002015173ffffffffffffffffffffffffffffffffffffffff1614610370576040517f08c379a0000000000000000000000000000000000000000000000000000000008152600401610367906133d9565b60405180910390fd5b7f000000000000000000000000000000000000000000000000000000000000000073ffffffffffffffffffffffffffffffffffffffff168160c001516001600281106103b857fe5b602002015173ffffffffffffffffffffffffffffffffffffffff1614610413576040517f08c379a000000000000000000000000000000000000000000000000000000000815260040161040a90613359565b60405180910390fd5b6104578160c0015160006002811061042757fe5b60200201517f0000000000000000000000000000000000000000000000000000000000000000836020015161193e565b60006040518061010001604052808360c0015160006002811061047657fe5b602002015173ffffffffffffffffffffffffffffffffffffffff1681526020018360c001516001600281106104a757fe5b602002015173ffffffffffffffffffffffffffffffffffffffff16815260200183610100015162ffffff1681526020013073ffffffffffffffffffffffffffffffffffffffff1681526020018360e0015181526020018360200151815260200183608001518152602001600073ffffffffffffffffffffffffffffffffffffffff1681525090507f000000000000000000000000000000000000000000000000000000000000000073ffffffffffffffffffffffffffffffffffffffff1663414bf389826040518263ffffffff1660e01b81526004016105879190613479565b602060405180830381600087803b1580156105a157600080fd5b505af19250505080156105d257506040513d601f19601f820116820180604052508101906105cf9190612a95565b60015b6106e45760007f0000000000000000000000000000000000000000000000000000000000000000905061062b338461014001518373ffffffffffffffffffffffffffffffffffffffff16611b3f9092919063ffffffff16565b6106658360a001518461014001518560200151038373ffffffffffffffffffffffffffffffffffffffff16611b3f9092919063ffffffff16565b8260a0015173ffffffffffffffffffffffffffffffffffffffff167fda9a4112ac825b78f13f71800fb33cf4db7b43cc29219b09b7e495a75eedeade8460c001516000600281106106b257fe5b60200201513386610140015187602001510360006040516106d69493929190613206565b60405180910390a25061089c565b600083602001518461014001518302816106fa57fe5b049050600081830390507f000000000000000000000000000000000000000000000000000000000000000073ffffffffffffffffffffffffffffffffffffffff16632e1a7d4d846040518263ffffffff1660e01b815260040161075d91906134b1565b600060405180830381600087803b15801561077757600080fd5b505af115801561078b573d6000803e3d6000fd5b505050508460a0015173ffffffffffffffffffffffffffffffffffffffff166108fc829081150290604051600060405180830381858888f193505050501580156107d9573d6000803e3d6000fd5b503373ffffffffffffffffffffffffffffffffffffffff166108fc839081150290604051600060405180830381858888f19350505050158015610820573d6000803e3d6000fd5b508460a0015173ffffffffffffffffffffffffffffffffffffffff167fda9a4112ac825b78f13f71800fb33cf4db7b43cc29219b09b7e495a75eedeade8660c0015160016002811061086e57fe5b602002015133846001604051610887949392919061324b565b60405180910390a2829550505050505061089f565b50505b92915050565b7f000000000000000000000000000000000000000000000000000000000000000081565b7f000000000000000000000000000000000000000000000000000000000000000081565b7f000000000000000000000000000000000000000000000000000000000000000081565b83876020013511610957576040517f08c379a000000000000000000000000000000000000000000000000000000000815260040161094e90613439565b60405180910390fd5b7f000000000000000000000000000000000000000000000000000000000000000073ffffffffffffffffffffffffffffffffffffffff168686600081811061099b57fe5b90506020020160208101906109b0919061283d565b73ffffffffffffffffffffffffffffffffffffffff1614610a06576040517f08c379a00000000000000000000000000000000000000000000000000000000081526004016109fd90613459565b60405180910390fd5b7f000000000000000000000000000000000000000000000000000000000000000073ffffffffffffffffffffffffffffffffffffffff1686866001818110610a4a57fe5b9050602002016020810190610a5f919061283d565b73ffffffffffffffffffffffffffffffffffffffff1614610ab5576040517f08c379a0000000000000000000000000000000000000000000000000000000008152600401610aac906133f9565b60405180910390fd5b60003411610af8576040517f08c379a0000000000000000000000000000000000000000000000000000000008152600401610aef90613419565b60405180910390fd5b6000610b35348960200135338a8a600090600292610b18939291906135ac565b8d608001358e60a0016020810190610b309190612a6c565b611be1565b905060008860400135896060013589896002818110610b5057fe5b9050602002016020810190610b65919061283d565b8a8a6003818110610b7257fe5b9050602002016020810190610b87919061283d565b8c608001358d60a0016020810190610b9f9190612a6c565b7f00000000000000000000000000000000000000000000000000000000000000008c604051602001610bd8989796959493929190613159565b6040516020818303038152906040529050610c347f00000000000000000000000000000000000000000000000000000000000000007f00000000000000000000000000000000000000000000000000000000000000008461193e565b7f000000000000000000000000000000000000000000000000000000000000000073ffffffffffffffffffffffffffffffffffffffff1663c5a5ebda7f000000000000000000000000000000000000000000000000000000000000000084888888876040518763ffffffff1660e01b8152600401610cb796959493929190613290565b602060405180830381600087803b158015610cd157600080fd5b505af1158015610ce5573d6000803e3d6000fd5b505050506040513d601f19601f82011682018060405250810190610d099190612abe565b50505050505050505050565b83876000013511610d5b576040517f08c379a0000000000000000000000000000000000000000000000000000000008152600401610d52906133b9565b60405180910390fd5b7f000000000000000000000000000000000000000000000000000000000000000073ffffffffffffffffffffffffffffffffffffffff1686866000818110610d9f57fe5b9050602002016020810190610db4919061283d565b73ffffffffffffffffffffffffffffffffffffffff1614610e0a576040517f08c379a0000000000000000000000000000000000000000000000000000000008152600401610e0190613459565b60405180910390fd5b7f000000000000000000000000000000000000000000000000000000000000000073ffffffffffffffffffffffffffffffffffffffff1686866001818110610e4e57fe5b9050602002016020810190610e63919061283d565b73ffffffffffffffffffffffffffffffffffffffff1614610eb9576040517f08c379a0000000000000000000000000000000000000000000000000000000008152600401610eb0906133f9565b60405180910390fd5b60003411610efc576040517f08c379a0000000000000000000000000000000000000000000000000000000008152600401610ef390613419565b60405180910390fd5b610f37876000013534338989600090600292610f1a939291906135ac565b8c608001358d60a0016020810190610f329190612a6c565b611d7a565b60008760400135886060013588886002818110610f5057fe5b9050602002016020810190610f65919061283d565b89896003818110610f7257fe5b9050602002016020810190610f87919061283d565b8b608001358c60a0016020810190610f9f9190612a6c565b7f00000000000000000000000000000000000000000000000000000000000000008b604051602001610fd8989796959493929190613159565b60405160208183030381529060405290506110387f00000000000000000000000000000000000000000000000000000000000000007f00000000000000000000000000000000000000000000000000000000000000008a6000013561193e565b7f000000000000000000000000000000000000000000000000000000000000000073ffffffffffffffffffffffffffffffffffffffff1663c5a5ebda7f00000000000000000000000000000000000000000000000000000000000000008a60000135878787876040518763ffffffff1660e01b81526004016110bf96959493929190613290565b602060405180830381600087803b1580156110d957600080fd5b505af11580156110ed573d6000803e3d6000fd5b505050506040513d601f19601f820116820180604052508101906111119190612abe565b505050505050505050565b60008061114a84847f00000000000000000000000000000000000000000000000000000000000000006117a1565b90507f000000000000000000000000000000000000000000000000000000000000000073ffffffffffffffffffffffffffffffffffffffff168160c0015160006002811061119457fe5b602002015173ffffffffffffffffffffffffffffffffffffffff16146111ef576040517f08c379a00000000000000000000000000000000000000000000000000000000081526004016111e6906133d9565b60405180910390fd5b7f000000000000000000000000000000000000000000000000000000000000000073ffffffffffffffffffffffffffffffffffffffff168160c0015160016002811061123757fe5b602002015173ffffffffffffffffffffffffffffffffffffffff1614611292576040517f08c379a000000000000000000000000000000000000000000000000000000000815260040161128990613399565b60405180910390fd5b60007f000000000000000000000000000000000000000000000000000000000000000090506112e7338361014001518373ffffffffffffffffffffffffffffffffffffffff16611b3f9092919063ffffffff16565b600082610140015183602001510390506000836080015190506113408460c0015160006002811061131457fe5b60200201517f00000000000000000000000000000000000000000000000000000000000000008461193e565b60006040518061010001604052808660c0015160006002811061135f57fe5b602002015173ffffffffffffffffffffffffffffffffffffffff1681526020018660c0015160016002811061139057fe5b602002015173ffffffffffffffffffffffffffffffffffffffff16815260200186610100015162ffffff1681526020013073ffffffffffffffffffffffffffffffffffffffff1681526020018660e001518152602001838152602001848152602001600073ffffffffffffffffffffffffffffffffffffffff1681525090507f000000000000000000000000000000000000000000000000000000000000000073ffffffffffffffffffffffffffffffffffffffff1663db3e2198826040518263ffffffff1660e01b81526004016114689190613495565b602060405180830381600087803b15801561148257600080fd5b505af19250505080156114b357506040513d601f19601f820116820180604052508101906114b09190612a95565b60015b611579576115068560a00151847f000000000000000000000000000000000000000000000000000000000000000073ffffffffffffffffffffffffffffffffffffffff16611b3f9092919063ffffffff16565b8460a0015173ffffffffffffffffffffffffffffffffffffffff167fda9a4112ac825b78f13f71800fb33cf4db7b43cc29219b09b7e495a75eedeade8660c0015160006002811061155357fe5b60200201513386600060405161156c9493929190613206565b60405180910390a2611771565b8381101561161f576115cd7f00000000000000000000000000000000000000000000000000000000000000007f0000000000000000000000000000000000000000000000000000000000000000600061193e565b61161e8660a001518286037f000000000000000000000000000000000000000000000000000000000000000073ffffffffffffffffffffffffffffffffffffffff16611b3f9092919063ffffffff16565b5b7f000000000000000000000000000000000000000000000000000000000000000073ffffffffffffffffffffffffffffffffffffffff16632e1a7d4d846040518263ffffffff1660e01b815260040161167891906134b1565b600060405180830381600087803b15801561169257600080fd5b505af11580156116a6573d6000803e3d6000fd5b505050508560a0015173ffffffffffffffffffffffffffffffffffffffff166108fc849081150290604051600060405180830381858888f193505050501580156116f4573d6000803e3d6000fd5b508560a0015173ffffffffffffffffffffffffffffffffffffffff167fda9a4112ac825b78f13f71800fb33cf4db7b43cc29219b09b7e495a75eedeade8760c0015160016002811061174257fe5b60200201513386600160405161175b949392919061324b565b60405180910390a2809650505050505050611777565b50505050505b92915050565b7f000000000000000000000000000000000000000000000000000000000000000081565b6117a96123c0565b60007f000000000000000000000000000000000000000000000000000000000000000073ffffffffffffffffffffffffffffffffffffffff1663c3f511c186866040518363ffffffff1660e01b81526004016118069291906132f8565b600060405180830381600087803b15801561182057600080fd5b505af1158015611834573d6000803e3d6000fd5b505050506040513d6000823e3d601f19601f8201168201806040525081019061185d91906128ab565b905073__SwapHelper____________________________63e9b6b08e826040518263ffffffff1660e01b8152600401611896919061331c565b6101806040518083038186803b1580156118af57600080fd5b505af41580156118c3573d6000803e3d6000fd5b505050506040513d601f19601f820116820180604052508101906118e791906128ec565b91508260ff1682610120015160ff1614611936576040517f08c379a000000000000000000000000000000000000000000000000000000000815260040161192d90613379565b60405180910390fd5b509392505050565b6000808473ffffffffffffffffffffffffffffffffffffffff1663095ea7b360e01b8585604051602401808373ffffffffffffffffffffffffffffffffffffffff16815260200182815260200192505050604051602081830303815290604052907bffffffffffffffffffffffffffffffffffffffffffffffffffffffff19166020820180517bffffffffffffffffffffffffffffffffffffffffffffffffffffffff83818316178352505050506040518082805190602001908083835b60208310611a1f57805182526020820191506020810190506020830392506119fc565b6001836020036101000a0380198251168184511680821785525050505050509050019150506000604051808303816000865af19150503d8060008114611a81576040519150601f19603f3d011682016040523d82523d6000602084013e611a86565b606091505b5091509150818015611ac65750600081511480611ac55750808060200190516020811015611ab357600080fd5b81019080805190602001909291905050505b5b611b38576040517f08c379a00000000000000000000000000000000000000000000000000000000081526004018080602001828103825260028152602001807f534100000000000000000000000000000000000000000000000000000000000081525060200191505060405180910390fd5b5050505050565b611bdc8363a9059cbb60e01b8484604051602401808373ffffffffffffffffffffffffffffffffffffffff16815260200182815260200192505050604051602081830303815290604052907bffffffffffffffffffffffffffffffffffffffffffffffffffffffff19166020820180517bffffffffffffffffffffffffffffffffffffffffffffffffffffffff8381831617835250505050612032565b505050565b60008060405180610100016040528087876000818110611bfd57fe5b9050602002016020810190611c12919061283d565b73ffffffffffffffffffffffffffffffffffffffff16815260200187876001818110611c3a57fe5b9050602002016020810190611c4f919061283d565b73ffffffffffffffffffffffffffffffffffffffff1681526020018462ffffff1681526020013073ffffffffffffffffffffffffffffffffffffffff1681526020018581526020018a8152602001898152602001600073ffffffffffffffffffffffffffffffffffffffff1681525090507f000000000000000000000000000000000000000000000000000000000000000073ffffffffffffffffffffffffffffffffffffffff1663414bf3898a836040518363ffffffff1660e01b8152600401611d1a9190613479565b6020604051808303818588803b158015611d3357600080fd5b505af1158015611d47573d6000803e3d6000fd5b50505050506040513d601f19601f82011682018060405250810190611d6c9190612a95565b915050979650505050505050565b600060405180610100016040528086866000818110611d9557fe5b9050602002016020810190611daa919061283d565b73ffffffffffffffffffffffffffffffffffffffff16815260200186866001818110611dd257fe5b9050602002016020810190611de7919061283d565b73ffffffffffffffffffffffffffffffffffffffff1681526020018362ffffff1681526020013073ffffffffffffffffffffffffffffffffffffffff168152602001848152602001898152602001888152602001600073ffffffffffffffffffffffffffffffffffffffff16815250905060007f000000000000000000000000000000000000000000000000000000000000000073ffffffffffffffffffffffffffffffffffffffff1663db3e219889846040518363ffffffff1660e01b8152600401611eb49190613495565b6020604051808303818588803b158015611ecd57600080fd5b505af1158015611ee1573d6000803e3d6000fd5b50505050506040513d601f19601f82011682018060405250810190611f069190612a95565b90507f000000000000000000000000000000000000000000000000000000000000000073ffffffffffffffffffffffffffffffffffffffff166312210e8a6040518163ffffffff1660e01b8152600401600060405180830381600087803b158015611f7057600080fd5b505af1158015611f84573d6000803e3d6000fd5b505050508781101561202757611fdd86866000818110611fa057fe5b9050602002016020810190611fb5919061283d565b7f0000000000000000000000000000000000000000000000000000000000000000600061193e565b8673ffffffffffffffffffffffffffffffffffffffff166108fc828a039081150290604051600060405180830381858888f19350505050158015612025573d6000803e3d6000fd5b505b505050505050505050565b6000612094826040518060400160405280602081526020017f5361666545524332303a206c6f772d6c6576656c2063616c6c206661696c65648152508573ffffffffffffffffffffffffffffffffffffffff166121219092919063ffffffff16565b905060008151111561211c578080602001905160208110156120b557600080fd5b810190808051906020019092919050505061211b576040517f08c379a000000000000000000000000000000000000000000000000000000000815260040180806020018281038252602a8152602001806138a8602a913960400191505060405180910390fd5b5b505050565b60606121308484600085612139565b90509392505050565b606082471015612194576040517f08c379a00000000000000000000000000000000000000000000000000000000081526004018080602001828103825260268152602001806138826026913960400191505060405180910390fd5b61219d856122e1565b61220f576040517f08c379a000000000000000000000000000000000000000000000000000000000815260040180806020018281038252601d8152602001807f416464726573733a2063616c6c20746f206e6f6e2d636f6e747261637400000081525060200191505060405180910390fd5b6000808673ffffffffffffffffffffffffffffffffffffffff1685876040518082805190602001908083835b6020831061225e578051825260208201915060208101905060208303925061223b565b6001836020036101000a03801982511681845116808217855250505050505090500191505060006040518083038185875af1925050503d80600081146122c0576040519150601f19603f3d011682016040523d82523d6000602084013e6122c5565b606091505b50915091506122d58282866122f4565b92505050949350505050565b600080823b905060008111915050919050565b60608315612304578290506123b9565b6000835111156123175782518084602001fd5b816040517f08c379a00000000000000000000000000000000000000000000000000000000081526004018080602001828103825283818151815260200191508051906020019080838360005b8381101561237e578082015181840152602081019050612363565b50505050905090810190601f1680156123ab5780820380516001836020036101000a031916815260200191505b509250505060405180910390fd5b9392505050565b604051806101600160405280600060ff16815260200160008152602001600073ffffffffffffffffffffffffffffffffffffffff1681526020016000801916815260200160008152602001600073ffffffffffffffffffffffffffffffffffffffff16815260200161243061245a565b815260200160008152602001600062ffffff168152602001600060ff168152602001600081525090565b6040518060400160405280600290602082028036833780820191505090505090565b600061248f61248a84613518565b6134e7565b905080828560208602820111156124a557600080fd5b60005b858110156124d557816124bb8882612532565b8452602084019350602083019250506001810190506124a8565b5050509392505050565b60006124f26124ed8461353e565b6134e7565b90508281526020810184848401111561250a57600080fd5b612515848285613700565b509392505050565b60008135905061252c816137c9565b92915050565b600081519050612541816137c9565b92915050565b600082601f83011261255857600080fd5b600261256584828561247c565b91505092915050565b60008083601f84011261258057600080fd5b8235905067ffffffffffffffff81111561259957600080fd5b6020830191508360208202830111156125b157600080fd5b9250929050565b6000813590506125c7816137e0565b92915050565b6000815190506125dc816137e0565b92915050565b60008083601f8401126125f457600080fd5b8235905067ffffffffffffffff81111561260d57600080fd5b60208301915083600182028301111561262557600080fd5b9250929050565b600082601f83011261263d57600080fd5b815161264d8482602086016124df565b91505092915050565b6000610180828403121561266957600080fd5b6126746101606134e7565b9050600061268484828501612828565b6000830152506020612698848285016127e9565b60208301525060406126ac84828501612532565b60408301525060606126c0848285016125cd565b60608301525060806126d4848285016127e9565b60808301525060a06126e884828501612532565b60a08301525060c06126fc84828501612547565b60c083015250610100612711848285016127e9565b60e083015250610120612726848285016127bf565b6101008301525061014061273c84828501612828565b61012083015250610160612752848285016127e9565b6101408301525092915050565b600060c0828403121561277157600080fd5b81905092915050565b600060c0828403121561278c57600080fd5b81905092915050565b6000813590506127a4816137f7565b92915050565b6000813590506127b98161380e565b92915050565b6000815190506127ce8161380e565b92915050565b6000813590506127e381613825565b92915050565b6000815190506127f881613825565b92915050565b60008135905061280d8161383c565b92915050565b60008151905061282281613853565b92915050565b6000815190506128378161386a565b92915050565b60006020828403121561284f57600080fd5b600061285d8482850161251d565b91505092915050565b6000806020838503121561287957600080fd5b600083013567ffffffffffffffff81111561289357600080fd5b61289f858286016125e2565b92509250509250929050565b6000602082840312156128bd57600080fd5b600082015167ffffffffffffffff8111156128d757600080fd5b6128e38482850161262c565b91505092915050565b600061018082840312156128ff57600080fd5b600061290d84828501612656565b91505092915050565b6000806000806000806000610160888a03121561293257600080fd5b60006129408a828b0161275f565b97505060c088013567ffffffffffffffff81111561295d57600080fd5b6129698a828b0161256e565b965096505060e061297c8a828b016127d4565b94505061010061298e8a828b01612795565b9350506101206129a08a828b016125b8565b9250506101406129b28a828b016127fe565b91505092959891949750929550565b6000806000806000806000610160888a0312156129dd57600080fd5b60006129eb8a828b0161277a565b97505060c088013567ffffffffffffffff811115612a0857600080fd5b612a148a828b0161256e565b965096505060e0612a278a828b016127d4565b945050610100612a398a828b01612795565b935050610120612a4b8a828b016125b8565b925050610140612a5d8a828b016127fe565b91505092959891949750929550565b600060208284031215612a7e57600080fd5b6000612a8c848285016127aa565b91505092915050565b600060208284031215612aa757600080fd5b6000612ab5848285016127e9565b91505092915050565b600060208284031215612ad057600080fd5b6000612ade84828501612813565b91505092915050565b612af081613673565b82525050565b612aff816135df565b82525050565b612b0e816135df565b82525050565b612b25612b20826135df565b613733565b82525050565b612b34816135f1565b82525050565b612b4b612b46826135f1565b613745565b82525050565b6000612b5d8385613579565b9350612b6a8385846136f1565b612b7383613791565b840190509392505050565b6000612b898261356e565b612b938185613579565b9350612ba3818560208601613700565b612bac81613791565b840191505092915050565b6000612bc28261356e565b612bcc818561358a565b9350612bdc818560208601613700565b612be581613791565b840191505092915050565b612bf981613685565b82525050565b612c08816136a9565b82525050565b612c17816136bb565b82525050565b6000612c2a601f8361359b565b91507f746f6b656e4f7574206d7573742062652077726170706564204e6174697665006000830152602082019050919050565b6000612c6a60258361359b565b91507f696e636f7272656374207377617046756e6374696f6e5479706520696e20706160008301527f796c6f61640000000000000000000000000000000000000000000000000000006020830152604082019050919050565b6000612cd060258361359b565b91507f746f6b656e4f7574206d7573742062652077726170706564206e61746976652060008301527f61737365740000000000000000000000000000000000000000000000000000006020830152604082019050919050565b6000612d3660258361359b565b91507f696e73756666696369656e7420616d6f756e744f757420746f2070617920726560008301527f6c617965720000000000000000000000000000000000000000000000000000006020830152604082019050919050565b6000612d9c60188361359b565b91507f746f6b656e496e206d75737420626520666565546f6b656e00000000000000006000830152602082019050919050565b6000612ddc60288361359b565b91507f746f6b656e4f7574206d75737420626520666565546f6b656e20666f7220666960008301527f72737420737761700000000000000000000000000000000000000000000000006020830152604082019050919050565b6000612e4260238361359b565b91507f6d7573742070617373206e6f6e2030206e617469766520617373657420616d6f60008301527f756e7400000000000000000000000000000000000000000000000000000000006020830152604082019050919050565b6000612ea8602c8361359b565b91507f696e73756666696369656e7420616d6f756e744f75744d696e696d756d20746f60008301527f207061792072656c6179657200000000000000000000000000000000000000006020830152604082019050919050565b6000612f0e60338361359b565b91507f746f6b656e496e206d7573742062652077726170706564206e6174697665206160008301527f7373657420666f722066697273742073776170000000000000000000000000006020830152604082019050919050565b61010082016000820151612f7e6000850182612af6565b506020820151612f916020850182612af6565b506040820151612fa460408501826130c9565b506060820151612fb76060850182612af6565b506080820151612fca60808501826130ef565b5060a0820151612fdd60a08501826130ef565b5060c0820151612ff060c08501826130ef565b5060e082015161300360e08501826130ab565b50505050565b610100820160008201516130206000850182612af6565b5060208201516130336020850182612af6565b50604082015161304660408501826130c9565b5060608201516130596060850182612af6565b50608082015161306c60808501826130ef565b5060a082015161307f60a08501826130ef565b5060c082015161309260c08501826130ef565b5060e08201516130a560e08501826130ab565b50505050565b6130b481613609565b82525050565b6130c3816135fb565b82525050565b6130d281613629565b82525050565b6130e96130e482613629565b613761565b82525050565b6130f881613638565b82525050565b61310781613638565b82525050565b61311e61311982613638565b613773565b82525050565b61312d81613642565b82525050565b61313c81613666565b82525050565b61315361314e82613666565b61377d565b82525050565b6000613165828b61310d565b602082019150613175828a612b3a565b6020820191506131858289612b14565b6014820191506131958288612b14565b6014820191506131a5828761310d565b6020820191506131b582866130d8565b6003820191506131c58285613142565b6001820191506131d5828461310d565b6020820191508190509998505050505050505050565b60006020820190506132006000830184612b05565b92915050565b600060808201905061321b6000830187612b05565b6132286020830186612ae7565b61323560408301856130fe565b6132426060830184612bff565b95945050505050565b60006080820190506132606000830187612b05565b61326d6020830186612ae7565b61327a60408301856130fe565b6132876060830184612c0e565b95945050505050565b600060c0820190506132a56000830189612b05565b6132b260208301886130fe565b6132bf60408301876130ba565b6132cc6060830186612b2b565b6132d96080830185613124565b81810360a08301526132eb8184612b7e565b9050979650505050505050565b60006020820190508181036000830152613313818486612b51565b90509392505050565b600060208201905081810360008301526133368184612bb7565b905092915050565b60006020820190506133536000830184612bf0565b92915050565b6000602082019050818103600083015261337281612c1d565b9050919050565b6000602082019050818103600083015261339281612c5d565b9050919050565b600060208201905081810360008301526133b281612cc3565b9050919050565b600060208201905081810360008301526133d281612d29565b9050919050565b600060208201905081810360008301526133f281612d8f565b9050919050565b6000602082019050818103600083015261341281612dcf565b9050919050565b6000602082019050818103600083015261343281612e35565b9050919050565b6000602082019050818103600083015261345281612e9b565b9050919050565b6000602082019050818103600083015261347281612f01565b9050919050565b60006101008201905061348f6000830184612f67565b92915050565b6000610100820190506134ab6000830184613009565b92915050565b60006020820190506134c660008301846130fe565b92915050565b60006020820190506134e16000830184613133565b92915050565b6000604051905081810181811067ffffffffffffffff8211171561350e5761350d61378f565b5b8060405250919050565b600067ffffffffffffffff8211156135335761353261378f565b5b602082029050919050565b600067ffffffffffffffff8211156135595761355861378f565b5b601f19601f8301169050602081019050919050565b600081519050919050565b600082825260208201905092915050565b600082825260208201905092915050565b600082825260208201905092915050565b600080858511156135bc57600080fd5b838611156135c957600080fd5b6020850283019150848603905094509492505050565b60006135ea82613609565b9050919050565b6000819050919050565b600061ffff82169050919050565b600073ffffffffffffffffffffffffffffffffffffffff82169050919050565b600062ffffff82169050919050565b6000819050919050565b600063ffffffff82169050919050565b600067ffffffffffffffff82169050919050565b600060ff82169050919050565b600061367e826136cd565b9050919050565b600061369082613697565b9050919050565b60006136a282613609565b9050919050565b60006136b482613666565b9050919050565b60006136c682613666565b9050919050565b60006136d8826136df565b9050919050565b60006136ea82613609565b9050919050565b82818337600083830152505050565b60005b8381101561371e578082015181840152602081019050613703565b8381111561372d576000848401525b50505050565b600061373e8261374f565b9050919050565b6000819050919050565b600061375a826137bc565b9050919050565b600061376c826137a2565b9050919050565b6000819050919050565b6000613788826137af565b9050919050565bfe5b6000601f19601f8301169050919050565b60008160e81b9050919050565b60008160f81b9050919050565b60008160601b9050919050565b6137d2816135df565b81146137dd57600080fd5b50565b6137e9816135f1565b81146137f457600080fd5b50565b613800816135fb565b811461380b57600080fd5b50565b61381781613629565b811461382257600080fd5b50565b61382e81613638565b811461383957600080fd5b50565b61384581613642565b811461385057600080fd5b50565b61385c81613652565b811461386757600080fd5b50565b61387381613666565b811461387e57600080fd5b5056fe416464726573733a20696e73756666696369656e742062616c616e636520666f722063616c6c5361666545524332303a204552433230206f7065726174696f6e20646964206e6f742073756363656564a2646970667358221220e5a7a430bed0090b3bbbdb0074cf3aa166c0a590bc1006fcc32a1cee78cc624464736f6c63430007060033",
  "immutableReferences": {
    "3096": [
      {
        "length": 32,
        "start": 679
      },
      {
        "length": 32,
        "start": 2977
      },
      {
        "length": 32,
        "start": 6015
      }
    ],
    "3099": [
      {
        "length": 32,
        "start": 599
      },
      {
        "length": 32,
        "start": 4001
      },
      {
        "length": 32,
        "start": 4390
      }
    ],
    "3101": [
      {
        "length": 32,
        "start": 1070
      },
      {
        "length": 32,
        "start": 1328
      },
      {
        "length": 32,
        "start": 2215
      },
      {
        "length": 32,
        "start": 4891
      },
      {
        "length": 32,
        "start": 5137
      },
      {
        "length": 32,
        "start": 5543
      },
      {
        "length": 32,
        "start": 7362
      },
      {
        "length": 32,
        "start": 7772
      },
      {
        "length": 32,
        "start": 7946
      },
      {
        "length": 32,
        "start": 8119
      }
    ],
    "3103": [
      {
        "length": 32,
        "start": 635
      },
      {
        "length": 32,
        "start": 719
      },
      {
        "length": 32,
        "start": 1498
      },
      {
        "length": 32,
        "start": 2568
      },
      {
        "length": 32,
        "start": 3054
      },
      {
        "length": 32,
        "start": 3186
      },
      {
        "length": 32,
        "start": 3596
      },
      {
        "length": 32,
        "start": 4078
      },
      {
        "length": 32,
        "start": 4214
      },
      {
        "length": 32,
        "start": 4430
      },
      {
        "length": 32,
        "start": 4758
      },
      {
        "length": 32,
        "start": 5314
      },
      {
        "length": 32,
        "start": 5510
      },
      {
        "length": 32,
        "start": 5594
      }
    ],
    "3105": [
      {
        "length": 32,
        "start": 2251
      },
      {
        "length": 32,
        "start": 3087
      },
      {
        "length": 32,
        "start": 3126
      },
      {
        "length": 32,
        "start": 4111
      },
      {
        "length": 32,
        "start": 4154
      },
      {
        "length": 32,
        "start": 6061
      }
    ],
    "3107": [
      {
        "length": 32,
        "start": 882
      },
      {
        "length": 32,
        "start": 1798
      },
      {
        "length": 32,
        "start": 2287
      },
      {
        "length": 32,
        "start": 2393
      },
      {
        "length": 32,
        "start": 3421
      },
      {
        "length": 32,
        "start": 4593
      },
      {
        "length": 32,
        "start": 5665
      }
    ]
  },
  "source": "// SPDX-License-Identifier: Apache 2\n\npragma solidity ^0.7.6;\npragma abicoder v2;\n\nimport './shared/IWormhole.sol';\nimport './shared/SwapHelper.sol';\nimport './shared/TokenBridge.sol';\nimport './shared/WETH.sol';\nimport 'solidity-bytes-utils/contracts/BytesLib.sol';\nimport '@openzeppelin/contracts/token/ERC20/IERC20.sol';\nimport '@openzeppelin/contracts/token/ERC20/SafeERC20.sol';\nimport '@uniswap/v3-periphery/contracts/interfaces/ISwapRouter.sol';\nimport '@uniswap/v3-periphery/contracts/libraries/TransferHelper.sol';\n\n\ninterface IUniswapRouter is ISwapRouter {\n    function refundETH() external payable;\n}\n\n\n/// @title A cross-chain UniswapV3 example \n/// @notice Swaps against UniswapV3 pools and uses Wormhole TokenBridge\n/// for cross-chain transfers\ncontract CrossChainSwapV3 {\n    using SafeERC20 for IERC20;\n    using BytesLib for bytes;\n    uint8 public immutable TypeExactIn = 1;\n    uint8 public immutable TypeExactOut = 2;\n    IUniswapRouter public immutable SWAP_ROUTER;\n    address public immutable FEE_TOKEN_ADDRESS;\n    address public immutable TOKEN_BRIDGE_ADDRESS;\n    address public immutable WRAPPED_NATIVE;\n\n    constructor(\n        address _swapRouterAddress, \n        address _feeTokenAddress, \n        address _tokenBridgeAddress,\n        address _wrappedNativeAddress\n    ) {\n        SWAP_ROUTER = IUniswapRouter(_swapRouterAddress);\n        FEE_TOKEN_ADDRESS = _feeTokenAddress;\n        TOKEN_BRIDGE_ADDRESS = _tokenBridgeAddress;\n        WRAPPED_NATIVE = _wrappedNativeAddress;\n    }\n\n    /// @dev Used to communicate information about executed swaps to UI/user\n    event SwapResult(\n        address indexed _recipient,\n        address _tokenOut,\n        address _from,\n        uint256 _amountOut,\n        uint8 _success\n    );\n\n    /// @dev Returns the parsed TokenBridge payload which contains swap \n    /// instructions after redeeming the VAA from the TokenBridge\n    function _getParsedPayload(\n        bytes calldata encodedVaa,\n        uint8 swapFunctionType\n    ) private returns (SwapHelper.DecodedVaaParameters memory payload) {\n        // complete the transfer on the token bridge\n        bytes memory vmPayload = TokenBridge(\n            TOKEN_BRIDGE_ADDRESS\n        ).completeTransferWithPayload(encodedVaa);\n\n        // parse the payload \n        payload = SwapHelper.decodeVaaPayload(vmPayload);\n\n        // sanity check payload parameters\n        require(\n            payload.swapFunctionType==swapFunctionType, \n            \"incorrect swapFunctionType in payload\"\n        ); \n    }     \n\n    /// @dev Executes exactIn native asset swap and pays the relayer\n    function recvAndSwapExactNativeIn(\n        bytes calldata encodedVaa\n    ) external returns (uint256 amountOut) {\n        // redeem and fetch parsed payload\n        SwapHelper.DecodedVaaParameters memory payload =\n            _getParsedPayload(\n                encodedVaa,\n                TypeExactIn\n            );  \n\n        // sanity check path \n        require(\n            payload.path[0]==FEE_TOKEN_ADDRESS, \n            \"tokenIn must be feeToken\"\n        );\n        require(\n            payload.path[1]==WRAPPED_NATIVE, \n            \"tokenOut must be wrapped Native\"\n        ); \n\n        // approve the router to spend tokens \n        TransferHelper.safeApprove(\n            payload.path[0], \n            address(SWAP_ROUTER), \n            payload.swapAmount\n        );\n        \n        // set swap options with user params\n        ISwapRouter.ExactInputSingleParams memory params =\n            ISwapRouter.ExactInputSingleParams({\n                tokenIn: payload.path[0],\n                tokenOut: payload.path[1],\n                fee: payload.poolFee,\n                recipient: address(this), \n                deadline: payload.deadline,\n                amountIn: payload.swapAmount,\n                amountOutMinimum: payload.estimatedAmount,\n                sqrtPriceLimitX96: 0\n            });\n\n        // try to execute the swap \n        try SWAP_ROUTER.exactInputSingle(params) returns (uint256 amountOut) {\n            // calculate how much to pay the relayer in the native token\n            uint256 nativeRelayerFee = amountOut * payload.relayerFee / payload.swapAmount;\n            uint256 nativeAmountOut = amountOut - nativeRelayerFee;\n\n            // unwrap native and send to recipient \n            IWETH(WRAPPED_NATIVE).withdraw(amountOut);\n            payable(payload.recipientAddress).transfer(nativeAmountOut);\n\n            /// pay the relayer in the native token\n            payable(msg.sender).transfer(nativeRelayerFee);\n\n            // used in UI to tell user they're getting\n            // their desired token\n            emit SwapResult(\n                payload.recipientAddress, \n                payload.path[1], \n                msg.sender, \n                nativeAmountOut,\n                1\n            );\n            return amountOut;\n        } catch {\n            // pay relayer in the feeToken since the swap failed\n            IERC20 feeToken = IERC20(FEE_TOKEN_ADDRESS); \n            feeToken.safeTransfer(msg.sender, payload.relayerFee);  \n\n            // swap failed - return feeToken (less relayer fees) to recipient\n            feeToken.safeTransfer(\n                payload.recipientAddress, \n                payload.swapAmount - payload.relayerFee\n            );\n\n            // used in UI to tell user they're getting\n            // feeToken instead of their desired native asset\n            emit SwapResult(\n                payload.recipientAddress, \n                payload.path[0], \n                msg.sender, \n                payload.swapAmount - payload.relayerFee,\n                0\n            );\n        }\n    }\n\n    /// @dev Executes exactOut native asset swap and pays the relayer\n    function recvAndSwapExactNativeOut(\n        bytes calldata encodedVaa\n    ) external returns (uint256 amountInUsed) {\n        // redeem and fetch parsed payload\n        SwapHelper.DecodedVaaParameters memory payload =\n            _getParsedPayload(\n                encodedVaa,\n                TypeExactOut\n            );\n\n        // sanity check path\n        require(\n            payload.path[0]==FEE_TOKEN_ADDRESS, \n            \"tokenIn must be feeToken\"\n        );\n        require(\n            payload.path[1]==WRAPPED_NATIVE, \n            \"tokenOut must be wrapped native asset\"\n        );\n\n        // pay the relayer in feeToken so that user gets desired exact amount out\n        IERC20 feeToken = IERC20(FEE_TOKEN_ADDRESS);\n        feeToken.safeTransfer(msg.sender, payload.relayerFee);  \n        uint256 maxAmountInLessFees = payload.swapAmount - payload.relayerFee;\n\n        // amountOut is the estimated swap amount for exact out methods\n        uint256 amountOut = payload.estimatedAmount;\n\n        // approve the router to spend tokens\n        TransferHelper.safeApprove(\n            payload.path[0], \n            address(SWAP_ROUTER), \n            maxAmountInLessFees\n        ); \n\n        // set swap options with user params\n        ISwapRouter.ExactOutputSingleParams memory params =\n            ISwapRouter.ExactOutputSingleParams({\n                tokenIn: payload.path[0],\n                tokenOut: payload.path[1],\n                fee: payload.poolFee,\n                recipient: address(this), \n                deadline: payload.deadline,\n                amountOut: amountOut,\n                amountInMaximum: maxAmountInLessFees, \n                sqrtPriceLimitX96: 0\n            });\n\n        // try to perform the swap\n        try SWAP_ROUTER.exactOutputSingle(params) returns (uint256 amountInUsed) {\n            // refund recipient with any feeToken not used in the swap\n            if (amountInUsed < maxAmountInLessFees) {\n                TransferHelper.safeApprove(\n                    FEE_TOKEN_ADDRESS, \n                    address(SWAP_ROUTER), \n                    0\n                );\n                IERC20(FEE_TOKEN_ADDRESS).safeTransfer(\n                    payload.recipientAddress, \n                    maxAmountInLessFees - amountInUsed\n                );  \n            }\n\n            // unwrap native and send to recipient \n            IWETH(WRAPPED_NATIVE).withdraw(amountOut);\n            payable(payload.recipientAddress).transfer(amountOut);\n\n            // used in UI to tell user they're getting\n            // their desired native asset\n            emit SwapResult(\n                payload.recipientAddress, \n                payload.path[1], \n                msg.sender, \n                amountOut,\n                1\n            );\n            return amountInUsed;\n        } catch {\n            // swap failed - return feeToken to recipient\n            IERC20(FEE_TOKEN_ADDRESS).safeTransfer(\n                payload.recipientAddress, \n                maxAmountInLessFees\n            );\n\n            // used in UI to tell user they're getting\n            // feeToken instead of their desired native asset\n            emit SwapResult(\n                payload.recipientAddress, \n                payload.path[0], \n                msg.sender, \n                maxAmountInLessFees,\n                0\n            );\n        }\n    }\n\n    /// @dev Executes exactIn native asset swap\n    function _swapExactInBeforeTransfer(\n        uint256 amountIn,\n        uint256 amountOutMinimum, \n        address contractCaller,\n        address[] calldata path,\n        uint256 deadline,\n        uint24 poolFee\n    ) internal returns (uint256 amountOut) {\n        // set swap options with user params\n        ISwapRouter.ExactInputSingleParams memory params =\n            ISwapRouter.ExactInputSingleParams({\n                tokenIn: path[0],\n                tokenOut: path[1],\n                fee: poolFee,\n                recipient: address(this),\n                deadline: deadline,\n                amountIn: amountIn, \n                amountOutMinimum: amountOutMinimum,\n                sqrtPriceLimitX96: 0\n            });\n\n        // perform the swap\n        amountOut = SWAP_ROUTER.exactInputSingle{value: amountIn}(params);\n    }\n\n    /// @dev Calls _swapExactInBeforeTransfer and encodes custom payload with \n    /// instructions for executing native asset swaps on the destination chain\n    function swapExactNativeInAndTransfer(\n        SwapHelper.ExactInParameters calldata swapParams,\n        address[] calldata path,\n        uint256 relayerFee,\n        uint16 targetChainId,\n        bytes32 targetContractAddress,\n        uint32 nonce\n    ) external payable {  \n        require(\n            swapParams.amountOutMinimum > relayerFee, \n            \"insufficient amountOutMinimum to pay relayer\"\n        );\n        require(\n            path[0]==WRAPPED_NATIVE, \n            \"tokenIn must be wrapped native asset for first swap\"\n        );\n        require(\n            path[1]==FEE_TOKEN_ADDRESS, \n            \"tokenOut must be feeToken for first swap\"\n        ); \n        require(msg.value > 0, \"must pass non 0 native asset amount\");\n\n        // peform the first swap\n        uint256 amountOut = _swapExactInBeforeTransfer(\n            msg.value,\n            swapParams.amountOutMinimum, \n            msg.sender,\n            path[0:2], \n            swapParams.deadline,\n            swapParams.poolFee\n        );\n\n        // create payload with target swap instructions\n        bytes memory payload = abi.encodePacked(\n            swapParams.targetAmountOutMinimum,\n            swapParams.targetChainRecipient,\n            path[2],\n            path[3],\n            swapParams.deadline,\n            swapParams.poolFee,\n            TypeExactIn,\n            relayerFee\n        );  \n\n        // approve token bridge to spend feeTokens\n        TransferHelper.safeApprove(\n            FEE_TOKEN_ADDRESS, \n            TOKEN_BRIDGE_ADDRESS, \n            amountOut\n        );\n\n        // send transfer with payload to the TokenBridge\n        TokenBridge(TOKEN_BRIDGE_ADDRESS).transferTokensWithPayload(\n            FEE_TOKEN_ADDRESS, \n            amountOut, \n            targetChainId, \n            targetContractAddress,  \n            nonce, \n            payload\n        );\n    } \n\n    /// @dev Executes exactOut native asset swaps\n    function _swapExactOutBeforeTransfer(\n        uint256 amountOut, \n        uint256 amountInMaximum,\n        address contractCaller,\n        address[] calldata path,\n        uint256 deadline,\n        uint24 poolFee\n    ) internal {  \n        // set swap options with user params\n        ISwapRouter.ExactOutputSingleParams memory params =\n            ISwapRouter.ExactOutputSingleParams({\n                tokenIn: path[0],\n                tokenOut: path[1],\n                fee: poolFee,\n                recipient: address(this),\n                deadline: deadline,\n                amountOut: amountOut,\n                amountInMaximum: amountInMaximum,\n                sqrtPriceLimitX96: 0\n            });\n\n        // executes the swap returning the amountInUsed \n        // ask for our money back -_- after the swap executes        \n        uint256 amountInUsed = SWAP_ROUTER.exactOutputSingle{value: amountInMaximum}(params);\n        SWAP_ROUTER.refundETH();\n\n        // return unused native asset to contractCaller\n        if (amountInUsed < amountInMaximum) {\n            // set SWAP_ROUTER allowance to zero\n            TransferHelper.safeApprove(path[0], address(SWAP_ROUTER), 0);\n            payable(contractCaller).transfer(\n                amountInMaximum - amountInUsed\n            );\n        }\n    }\n\n    /// @dev Calls _swapExactOutBeforeTransfer and encodes custom payload with \n    /// instructions for executing native asset swaps on the destination chain\n    function swapExactNativeOutAndTransfer(\n        SwapHelper.ExactOutParameters calldata swapParams,\n        address[] calldata path,\n        uint256 relayerFee,\n        uint16 targetChainId,\n        bytes32 targetContractAddress,\n        uint32 nonce\n    ) external payable {  \n        require(\n            swapParams.amountOut > relayerFee, \n            \"insufficient amountOut to pay relayer\"\n        );\n        require(\n            path[0]==WRAPPED_NATIVE, \n            \"tokenIn must be wrapped native asset for first swap\"\n        );\n        require(\n            path[1]==FEE_TOKEN_ADDRESS, \n            \"tokenOut must be feeToken for first swap\"\n        );\n        require(msg.value > 0, \"must pass non 0 native asset amount\");\n\n        // peform the first swap\n        _swapExactOutBeforeTransfer(\n            swapParams.amountOut, \n            msg.value, \n            msg.sender,\n            path[0:2], \n            swapParams.deadline,\n            swapParams.poolFee\n        );\n\n        // create payload with target swap instructions\n        bytes memory payload = abi.encodePacked(\n            swapParams.targetAmountOut,\n            swapParams.targetChainRecipient,\n            path[2],\n            path[3],\n            swapParams.deadline,\n            swapParams.poolFee,\n            TypeExactOut,\n            relayerFee\n        );  \n\n        // approve token bridge to spend feeTokens \n        TransferHelper.safeApprove(\n            FEE_TOKEN_ADDRESS, \n            TOKEN_BRIDGE_ADDRESS, \n            swapParams.amountOut\n        );\n\n        // send transfer with payload to the TokenBridge\n        TokenBridge(TOKEN_BRIDGE_ADDRESS).transferTokensWithPayload(\n            FEE_TOKEN_ADDRESS, \n            swapParams.amountOut, \n            targetChainId, \n            targetContractAddress, \n            nonce, \n            payload\n        );\n    }\n\n    // necessary for receiving native assets \n    receive() external payable {}\n}",
  "sourcePath": "/Users/admin/Desktop/example-nativeswap-v3/contracts/contracts/CrossChainSwapV3.sol",
  "compiler": {
    "name": "solc",
    "version": "0.7.6+commit.7338295f.Emscripten.clang"
  },
  "schemaVersion": "3.4.4",
  "updatedAt": "2023-07-30T12:25:00.962Z",
  "devdoc": {
    "events": {
      "SwapResult(address,address,address,uint256,uint8)": {
        "details": "Used to communicate information about executed swaps to UI/user"
      }
    },
    "kind": "dev",
    "methods": {
      "recvAndSwapExactNativeIn(bytes)": {
        "details": "Executes exactIn native asset swap and pays the relayer"
      },
      "recvAndSwapExactNativeOut(bytes)": {
        "details": "Executes exactOut native asset swap and pays the relayer"
      },
      "swapExactNativeInAndTransfer((uint256,uint256,uint256,bytes32,uint256,uint24),address[],uint256,uint16,bytes32,uint32)": {
        "details": "Calls _swapExactInBeforeTransfer and encodes custom payload with  instructions for executing native asset swaps on the destination chain"
      },
      "swapExactNativeOutAndTransfer((uint256,uint256,uint256,bytes32,uint256,uint24),address[],uint256,uint16,bytes32,uint32)": {
        "details": "Calls _swapExactOutBeforeTransfer and encodes custom payload with  instructions for executing native asset swaps on the destination chain"
      }
    },
    "title": "A cross-chain UniswapV3 example ",
    "version": 1
  },
  "userdoc": {
    "kind": "user",
    "methods": {},
    "notice": "Swaps against UniswapV3 pools and uses Wormhole TokenBridge for cross-chain transfers",
    "version": 1
  }
}