{
  "contractName": "CrossChainSwapV2",
  "abi": [
    {
      "inputs": [
        {
          "internalType": "address",
          "name": "_swapRouterAddress",
          "type": "address"
        },
        {
          "internalType": "address",
          "name": "_feeTokenAddress",
          "type": "address"
        },
        {
          "internalType": "address",
          "name": "_tokenBridgeAddress",
          "type": "address"
        },
        {
          "internalType": "address",
          "name": "_wrappedNativeAddress",
          "type": "address"
        }
      ],
      "stateMutability": "nonpayable",
      "type": "constructor"
    },
    {
      "anonymous": false,
      "inputs": [
        {
          "indexed": true,
          "internalType": "address",
          "name": "_recipient",
          "type": "address"
        },
        {
          "indexed": false,
          "internalType": "address",
          "name": "_tokenOut",
          "type": "address"
        },
        {
          "indexed": false,
          "internalType": "address",
          "name": "_from",
          "type": "address"
        },
        {
          "indexed": false,
          "internalType": "uint256",
          "name": "_amountOut",
          "type": "uint256"
        },
        {
          "indexed": false,
          "internalType": "uint8",
          "name": "_success",
          "type": "uint8"
        }
      ],
      "name": "SwapResult",
      "type": "event"
    },
    {
      "inputs": [],
      "name": "FEE_TOKEN_ADDRESS",
      "outputs": [
        {
          "internalType": "address",
          "name": "",
          "type": "address"
        }
      ],
      "stateMutability": "view",
      "type": "function"
    },
    {
      "inputs": [],
      "name": "SWAP_ROUTER",
      "outputs": [
        {
          "internalType": "contract IUniswapV2Router02",
          "name": "",
          "type": "address"
        }
      ],
      "stateMutability": "view",
      "type": "function"
    },
    {
      "inputs": [],
      "name": "TOKEN_BRIDGE_ADDRESS",
      "outputs": [
        {
          "internalType": "address",
          "name": "",
          "type": "address"
        }
      ],
      "stateMutability": "view",
      "type": "function"
    },
    {
      "inputs": [],
      "name": "TypeExactIn",
      "outputs": [
        {
          "internalType": "uint8",
          "name": "",
          "type": "uint8"
        }
      ],
      "stateMutability": "view",
      "type": "function"
    },
    {
      "inputs": [],
      "name": "TypeExactOut",
      "outputs": [
        {
          "internalType": "uint8",
          "name": "",
          "type": "uint8"
        }
      ],
      "stateMutability": "view",
      "type": "function"
    },
    {
      "inputs": [],
      "name": "WRAPPED_NATIVE",
      "outputs": [
        {
          "internalType": "address",
          "name": "",
          "type": "address"
        }
      ],
      "stateMutability": "view",
      "type": "function"
    },
    {
      "stateMutability": "payable",
      "type": "receive"
    },
    {
      "inputs": [
        {
          "internalType": "bytes",
          "name": "encodedVaa",
          "type": "bytes"
        }
      ],
      "name": "recvAndSwapExactNativeIn",
      "outputs": [
        {
          "internalType": "uint256[]",
          "name": "amounts",
          "type": "uint256[]"
        }
      ],
      "stateMutability": "payable",
      "type": "function"
    },
    {
      "inputs": [
        {
          "internalType": "bytes",
          "name": "encodedVaa",
          "type": "bytes"
        }
      ],
      "name": "recvAndSwapExactNativeOut",
      "outputs": [
        {
          "internalType": "uint256",
          "name": "amountInUsed",
          "type": "uint256"
        }
      ],
      "stateMutability": "nonpayable",
      "type": "function"
    },
    {
      "inputs": [
        {
          "components": [
            {
              "internalType": "uint256",
              "name": "amountIn",
              "type": "uint256"
            },
            {
              "internalType": "uint256",
              "name": "amountOutMinimum",
              "type": "uint256"
            },
            {
              "internalType": "uint256",
              "name": "targetAmountOutMinimum",
              "type": "uint256"
            },
            {
              "internalType": "bytes32",
              "name": "targetChainRecipient",
              "type": "bytes32"
            },
            {
              "internalType": "uint256",
              "name": "deadline",
              "type": "uint256"
            },
            {
              "internalType": "uint24",
              "name": "poolFee",
              "type": "uint24"
            }
          ],
          "internalType": "struct SwapHelper.ExactInParameters",
          "name": "swapParams",
          "type": "tuple"
        },
        {
          "internalType": "address[]",
          "name": "path",
          "type": "address[]"
        },
        {
          "internalType": "uint256",
          "name": "relayerFee",
          "type": "uint256"
        },
        {
          "internalType": "uint16",
          "name": "targetChainId",
          "type": "uint16"
        },
        {
          "internalType": "bytes32",
          "name": "targetContractAddress",
          "type": "bytes32"
        },
        {
          "internalType": "uint32",
          "name": "nonce",
          "type": "uint32"
        }
      ],
      "name": "swapExactNativeInAndTransfer",
      "outputs": [],
      "stateMutability": "payable",
      "type": "function"
    },
    {
      "inputs": [
        {
          "components": [
            {
              "internalType": "uint256",
              "name": "amountOut",
              "type": "uint256"
            },
            {
              "internalType": "uint256",
              "name": "amountInMaximum",
              "type": "uint256"
            },
            {
              "internalType": "uint256",
              "name": "targetAmountOut",
              "type": "uint256"
            },
            {
              "internalType": "bytes32",
              "name": "targetChainRecipient",
              "type": "bytes32"
            },
            {
              "internalType": "uint256",
              "name": "deadline",
              "type": "uint256"
            },
            {
              "internalType": "uint24",
              "name": "poolFee",
              "type": "uint24"
            }
          ],
          "internalType": "struct SwapHelper.ExactOutParameters",
          "name": "swapParams",
          "type": "tuple"
        },
        {
          "internalType": "address[]",
          "name": "path",
          "type": "address[]"
        },
        {
          "internalType": "uint256",
          "name": "relayerFee",
          "type": "uint256"
        },
        {
          "internalType": "uint16",
          "name": "targetChainId",
          "type": "uint16"
        },
        {
          "internalType": "bytes32",
          "name": "targetContractAddress",
          "type": "bytes32"
        },
        {
          "internalType": "uint32",
          "name": "nonce",
          "type": "uint32"
        }
      ],
      "name": "swapExactNativeOutAndTransfer",
      "outputs": [],
      "stateMutability": "payable",
      "type": "function"
    }
  ],
  "bytecode": "0x610140604052600160ff1660809060ff1660f81b815250600260ff1660a09060ff1660f81b8152503480156200003457600080fd5b5060405162003efd38038062003efd83398181016040528101906200005a919062000159565b8373ffffffffffffffffffffffffffffffffffffffff1660c08173ffffffffffffffffffffffffffffffffffffffff1660601b815250508273ffffffffffffffffffffffffffffffffffffffff1660e08173ffffffffffffffffffffffffffffffffffffffff1660601b815250508173ffffffffffffffffffffffffffffffffffffffff166101008173ffffffffffffffffffffffffffffffffffffffff1660601b815250508073ffffffffffffffffffffffffffffffffffffffff166101208173ffffffffffffffffffffffffffffffffffffffff1660601b815250505050505062000213565b6000815190506200015381620001f9565b92915050565b600080600080608085870312156200017057600080fd5b6000620001808782880162000142565b9450506020620001938782880162000142565b9350506040620001a68782880162000142565b9250506060620001b98782880162000142565b91505092959194509250565b6000620001d282620001d9565b9050919050565b600073ffffffffffffffffffffffffffffffffffffffff82169050919050565b6200020481620001c5565b81146200021057600080fd5b50565b60805160f81c60a05160f81c60c05160601c60e05160601c6101005160601c6101205160601c613bc16200033c6000398061046b5280610766528061096252806109cc5280610b6d5280610e3e5280610fdf528061144552806117cc528061206c52508061093e5280610cf05280610d17528061115e5280611189528061199052508061026e52806103c952806106135280610a7b5280610ccf5280610d535280610eed528061113d52806111c552806113a352806114ea5280611657528061173152806117855250806105255280610550528061091a528061156e528061159552806117525280611ded5280611e165280611f195280611f42528061204452508061024a52806110f0528061127552508061029b5280610c8252806119625250613bc16000f3fe6080604052600436106100955760003560e01c8063d999984d11610059578063d999984d1461017d578063dc41746d146101a8578063e7ab2f93146101c4578063f49cf319146101e0578063fa44e05f1461021d5761009c565b80630d4e8fc4146100a1578063331ab6f2146100cc5780633a988e80146100f7578063c600589314610127578063c8bd0987146101525761009c565b3661009c57005b600080fd5b3480156100ad57600080fd5b506100b6610248565b6040516100c391906136ba565b60405180910390f35b3480156100d857600080fd5b506100e161026c565b6040516100ee9190613359565b60405180910390f35b610111600480360381019061010c9190612a56565b610290565b60405161011e9190613466565b60405180910390f35b34801561013357600080fd5b5061013c610918565b60405161014991906134ce565b60405180910390f35b34801561015e57600080fd5b5061016761093c565b6040516101749190613359565b60405180910390f35b34801561018957600080fd5b50610192610960565b60405161019f9190613359565b60405180910390f35b6101c260048036038101906101bd9190612b06565b610984565b005b6101de60048036038101906101d99190612bb1565b610df6565b005b3480156101ec57600080fd5b5061020760048036038101906102029190612a56565b61126b565b60405161021491906135e9565b60405180910390f35b34801561022957600080fd5b50610232611960565b60405161023f91906136ba565b60405180910390f35b7f000000000000000000000000000000000000000000000000000000000000000081565b7f000000000000000000000000000000000000000000000000000000000000000081565b606060006102bf84847f0000000000000000000000000000000000000000000000000000000000000000611984565b90506000600267ffffffffffffffff811180156102db57600080fd5b5060405190808252806020026020018201604052801561030a5781602001602082028036833780820191505090505b5090508160c0015160006002811061031e57fe5b60200201518160008151811061033057fe5b602002602001019073ffffffffffffffffffffffffffffffffffffffff16908173ffffffffffffffffffffffffffffffffffffffff16815250508160c0015160016002811061037b57fe5b60200201518160018151811061038d57fe5b602002602001019073ffffffffffffffffffffffffffffffffffffffff16908173ffffffffffffffffffffffffffffffffffffffff16815250507f000000000000000000000000000000000000000000000000000000000000000073ffffffffffffffffffffffffffffffffffffffff168160008151811061040b57fe5b602002602001015173ffffffffffffffffffffffffffffffffffffffff1614610469576040517f08c379a000000000000000000000000000000000000000000000000000000000815260040161046090613549565b60405180910390fd5b7f000000000000000000000000000000000000000000000000000000000000000073ffffffffffffffffffffffffffffffffffffffff16816001815181106104ad57fe5b602002602001015173ffffffffffffffffffffffffffffffffffffffff161461050b576040517f08c379a000000000000000000000000000000000000000000000000000000000815260040161050290613509565b60405180910390fd5b61054e8160008151811061051b57fe5b60200260200101517f00000000000000000000000000000000000000000000000000000000000000008460200151611b21565b7f000000000000000000000000000000000000000000000000000000000000000073ffffffffffffffffffffffffffffffffffffffff166338ed17398360200151846080015184308760e001516040518663ffffffff1660e01b81526004016105bb959493929190613660565b600060405180830381600087803b1580156105d557600080fd5b505af192505050801561060b57506040513d6000823e3d601f19601f820116820180604052508101906106089190612a15565b60015b61071c5760007f00000000000000000000000000000000000000000000000000000000000000009050610664338461014001518373ffffffffffffffffffffffffffffffffffffffff16611d229092919063ffffffff16565b61069e8360a001518461014001518560200151038373ffffffffffffffffffffffffffffffffffffffff16611d229092919063ffffffff16565b8260a0015173ffffffffffffffffffffffffffffffffffffffff167fda9a4112ac825b78f13f71800fb33cf4db7b43cc29219b09b7e495a75eedeade836000815181106106e757fe5b602002602001015133866101400151876020015103600060405161070e9493929190613374565b60405180910390a25061090f565b600083602001518461014001518360018151811061073657fe5b6020026020010151028161074657fe5b0490506000818360018151811061075957fe5b60200260200101510390507f000000000000000000000000000000000000000000000000000000000000000073ffffffffffffffffffffffffffffffffffffffff16632e1a7d4d846001815181106107ad57fe5b60200260200101516040518263ffffffff1660e01b81526004016107d191906135e9565b600060405180830381600087803b1580156107eb57600080fd5b505af11580156107ff573d6000803e3d6000fd5b505050508460a0015173ffffffffffffffffffffffffffffffffffffffff166108fc829081150290604051600060405180830381858888f1935050505015801561084d573d6000803e3d6000fd5b503373ffffffffffffffffffffffffffffffffffffffff166108fc839081150290604051600060405180830381858888f19350505050158015610894573d6000803e3d6000fd5b508460a0015173ffffffffffffffffffffffffffffffffffffffff167fda9a4112ac825b78f13f71800fb33cf4db7b43cc29219b09b7e495a75eedeade856001815181106108de57fe5b6020026020010151338460016040516108fa94939291906133b9565b60405180910390a28295505050505050610912565b50505b92915050565b7f000000000000000000000000000000000000000000000000000000000000000081565b7f000000000000000000000000000000000000000000000000000000000000000081565b7f000000000000000000000000000000000000000000000000000000000000000081565b838760200135116109ca576040517f08c379a00000000000000000000000000000000000000000000000000000000081526004016109c1906135a9565b60405180910390fd5b7f000000000000000000000000000000000000000000000000000000000000000073ffffffffffffffffffffffffffffffffffffffff1686866000818110610a0e57fe5b9050602002016020810190610a2391906129ec565b73ffffffffffffffffffffffffffffffffffffffff1614610a79576040517f08c379a0000000000000000000000000000000000000000000000000000000008152600401610a70906135c9565b60405180910390fd5b7f000000000000000000000000000000000000000000000000000000000000000073ffffffffffffffffffffffffffffffffffffffff1686866001818110610abd57fe5b9050602002016020810190610ad291906129ec565b73ffffffffffffffffffffffffffffffffffffffff1614610b28576040517f08c379a0000000000000000000000000000000000000000000000000000000008152600401610b1f90613569565b60405180910390fd5b60003411610b6b576040517f08c379a0000000000000000000000000000000000000000000000000000000008152600401610b6290613589565b60405180910390fd5b7f000000000000000000000000000000000000000000000000000000000000000073ffffffffffffffffffffffffffffffffffffffff1663d0e30db0346040518263ffffffff1660e01b81526004016000604051808303818588803b158015610bd357600080fd5b505af1158015610be7573d6000803e3d6000fd5b50505050506000610c16348960200135338a8a600090600292610c0c93929190613866565b8d60800135611dc4565b905060008860400135896060013589896002818110610c3157fe5b9050602002016020810190610c4691906129ec565b8a8a6003818110610c5357fe5b9050602002016020810190610c6891906129ec565b8c608001358d60a0016020810190610c809190612c5c565b7f00000000000000000000000000000000000000000000000000000000000000008c604051602001610cb99897969594939291906132c7565b6040516020818303038152906040529050610d157f00000000000000000000000000000000000000000000000000000000000000007f000000000000000000000000000000000000000000000000000000000000000084611b21565b7f000000000000000000000000000000000000000000000000000000000000000073ffffffffffffffffffffffffffffffffffffffff1663c5a5ebda7f000000000000000000000000000000000000000000000000000000000000000084888888876040518763ffffffff1660e01b8152600401610d98969594939291906133fe565b602060405180830381600087803b158015610db257600080fd5b505af1158015610dc6573d6000803e3d6000fd5b505050506040513d601f19601f82011682018060405250810190610dea9190612c85565b50505050505050505050565b83876000013511610e3c576040517f08c379a0000000000000000000000000000000000000000000000000000000008152600401610e3390613529565b60405180910390fd5b7f000000000000000000000000000000000000000000000000000000000000000073ffffffffffffffffffffffffffffffffffffffff1686866000818110610e8057fe5b9050602002016020810190610e9591906129ec565b73ffffffffffffffffffffffffffffffffffffffff1614610eeb576040517f08c379a0000000000000000000000000000000000000000000000000000000008152600401610ee2906135c9565b60405180910390fd5b7f000000000000000000000000000000000000000000000000000000000000000073ffffffffffffffffffffffffffffffffffffffff1686866001818110610f2f57fe5b9050602002016020810190610f4491906129ec565b73ffffffffffffffffffffffffffffffffffffffff1614610f9a576040517f08c379a0000000000000000000000000000000000000000000000000000000008152600401610f9190613569565b60405180910390fd5b60003411610fdd576040517f08c379a0000000000000000000000000000000000000000000000000000000008152600401610fd490613589565b60405180910390fd5b7f000000000000000000000000000000000000000000000000000000000000000073ffffffffffffffffffffffffffffffffffffffff1663d0e30db0346040518263ffffffff1660e01b81526004016000604051808303818588803b15801561104557600080fd5b505af1158015611059573d6000803e3d6000fd5b505050505061108687600001353433898960009060029261107c93929190613866565b8c60800135611ef2565b6000876040013588606001358888600281811061109f57fe5b90506020020160208101906110b491906129ec565b898960038181106110c157fe5b90506020020160208101906110d691906129ec565b8b608001358c60a00160208101906110ee9190612c5c565b7f00000000000000000000000000000000000000000000000000000000000000008b6040516020016111279897969594939291906132c7565b60405160208183030381529060405290506111877f00000000000000000000000000000000000000000000000000000000000000007f00000000000000000000000000000000000000000000000000000000000000008a60000135611b21565b7f000000000000000000000000000000000000000000000000000000000000000073ffffffffffffffffffffffffffffffffffffffff1663c5a5ebda7f00000000000000000000000000000000000000000000000000000000000000008a60000135878787876040518763ffffffff1660e01b815260040161120e969594939291906133fe565b602060405180830381600087803b15801561122857600080fd5b505af115801561123c573d6000803e3d6000fd5b505050506040513d601f19601f820116820180604052508101906112609190612c85565b505050505050505050565b60008061129984847f0000000000000000000000000000000000000000000000000000000000000000611984565b90506000600267ffffffffffffffff811180156112b557600080fd5b506040519080825280602002602001820160405280156112e45781602001602082028036833780820191505090505b5090508160c001516000600281106112f857fe5b60200201518160008151811061130a57fe5b602002602001019073ffffffffffffffffffffffffffffffffffffffff16908173ffffffffffffffffffffffffffffffffffffffff16815250508160c0015160016002811061135557fe5b60200201518160018151811061136757fe5b602002602001019073ffffffffffffffffffffffffffffffffffffffff16908173ffffffffffffffffffffffffffffffffffffffff16815250507f000000000000000000000000000000000000000000000000000000000000000073ffffffffffffffffffffffffffffffffffffffff16816000815181106113e557fe5b602002602001015173ffffffffffffffffffffffffffffffffffffffff1614611443576040517f08c379a000000000000000000000000000000000000000000000000000000000815260040161143a90613549565b60405180910390fd5b7f000000000000000000000000000000000000000000000000000000000000000073ffffffffffffffffffffffffffffffffffffffff168260c0015160016002811061148b57fe5b602002015173ffffffffffffffffffffffffffffffffffffffff16146114e6576040517f08c379a00000000000000000000000000000000000000000000000000000000081526004016114dd90613509565b60405180910390fd5b60007f0000000000000000000000000000000000000000000000000000000000000000905061153b338461014001518373ffffffffffffffffffffffffffffffffffffffff16611d229092919063ffffffff16565b600083610140015184602001510390506000846080015190506115938460008151811061156457fe5b60200260200101517f000000000000000000000000000000000000000000000000000000000000000084611b21565b7f000000000000000000000000000000000000000000000000000000000000000073ffffffffffffffffffffffffffffffffffffffff16638803dbee828487308a60e001516040518663ffffffff1660e01b81526004016115f8959493929190613660565b600060405180830381600087803b15801561161257600080fd5b505af192505050801561164857506040513d6000823e3d601f19601f820116820180604052508101906116459190612a15565b60015b61170d5761169b8560a00151837f000000000000000000000000000000000000000000000000000000000000000073ffffffffffffffffffffffffffffffffffffffff16611d229092919063ffffffff16565b8460a0015173ffffffffffffffffffffffffffffffffffffffff167fda9a4112ac825b78f13f71800fb33cf4db7b43cc29219b09b7e495a75eedeade856000815181106116e457fe5b6020026020010151338560006040516117009493929190613374565b60405180910390a2611954565b8060008151811061171a57fe5b60200260200101519650828710156117ca576117787f00000000000000000000000000000000000000000000000000000000000000007f00000000000000000000000000000000000000000000000000000000000000006000611b21565b6117c98660a001518885037f000000000000000000000000000000000000000000000000000000000000000073ffffffffffffffffffffffffffffffffffffffff16611d229092919063ffffffff16565b5b7f000000000000000000000000000000000000000000000000000000000000000073ffffffffffffffffffffffffffffffffffffffff16632e1a7d4d8260018151811061181357fe5b60200260200101516040518263ffffffff1660e01b815260040161183791906135e9565b600060405180830381600087803b15801561185157600080fd5b505af1158015611865573d6000803e3d6000fd5b505050508560a0015173ffffffffffffffffffffffffffffffffffffffff166108fc8260018151811061189457fe5b60200260200101519081150290604051600060405180830381858888f193505050501580156118c7573d6000803e3d6000fd5b508560a0015173ffffffffffffffffffffffffffffffffffffffff167fda9a4112ac825b78f13f71800fb33cf4db7b43cc29219b09b7e495a75eedeade8660018151811061191157fe5b6020026020010151338460018151811061192757fe5b6020026020010151600160405161194194939291906133b9565b60405180910390a250505050505061195a565b50505050505b92915050565b7f000000000000000000000000000000000000000000000000000000000000000081565b61198c6124d9565b60007f000000000000000000000000000000000000000000000000000000000000000073ffffffffffffffffffffffffffffffffffffffff1663c3f511c186866040518363ffffffff1660e01b81526004016119e9929190613488565b600060405180830381600087803b158015611a0357600080fd5b505af1158015611a17573d6000803e3d6000fd5b505050506040513d6000823e3d601f19601f82011682018060405250810190611a409190612a9b565b905073__SwapHelper____________________________63e9b6b08e826040518263ffffffff1660e01b8152600401611a7991906134ac565b6101806040518083038186803b158015611a9257600080fd5b505af4158015611aa6573d6000803e3d6000fd5b505050506040513d601f19601f82011682018060405250810190611aca9190612adc565b91508260ff1682610120015160ff1614611b19576040517f08c379a0000000000000000000000000000000000000000000000000000000008152600401611b10906134e9565b60405180910390fd5b509392505050565b6000808473ffffffffffffffffffffffffffffffffffffffff1663095ea7b360e01b8585604051602401808373ffffffffffffffffffffffffffffffffffffffff16815260200182815260200192505050604051602081830303815290604052907bffffffffffffffffffffffffffffffffffffffffffffffffffffffff19166020820180517bffffffffffffffffffffffffffffffffffffffffffffffffffffffff83818316178352505050506040518082805190602001908083835b60208310611c025780518252602082019150602081019050602083039250611bdf565b6001836020036101000a0380198251168184511680821785525050505050509050019150506000604051808303816000865af19150503d8060008114611c64576040519150601f19603f3d011682016040523d82523d6000602084013e611c69565b606091505b5091509150818015611ca95750600081511480611ca85750808060200190516020811015611c9657600080fd5b81019080805190602001909291905050505b5b611d1b576040517f08c379a00000000000000000000000000000000000000000000000000000000081526004018080602001828103825260028152602001807f534100000000000000000000000000000000000000000000000000000000000081525060200191505060405180910390fd5b5050505050565b611dbf8363a9059cbb60e01b8484604051602401808373ffffffffffffffffffffffffffffffffffffffff16815260200182815260200192505050604051602081830303815290604052907bffffffffffffffffffffffffffffffffffffffffffffffffffffffff19166020820180517bffffffffffffffffffffffffffffffffffffffffffffffffffffffff838183161783525050505061214b565b505050565b6000611e1284846000818110611dd657fe5b9050602002016020810190611deb91906129ec565b7f000000000000000000000000000000000000000000000000000000000000000089611b21565b60007f000000000000000000000000000000000000000000000000000000000000000073ffffffffffffffffffffffffffffffffffffffff166338ed17398989888830896040518763ffffffff1660e01b8152600401611e7796959493929190613604565b600060405180830381600087803b158015611e9157600080fd5b505af1158015611ea5573d6000803e3d6000fd5b505050506040513d6000823e3d601f19601f82011682018060405250810190611ece9190612a15565b905080600181518110611edd57fe5b60200260200101519150509695505050505050565b611f3e83836000818110611f0257fe5b9050602002016020810190611f1791906129ec565b7f000000000000000000000000000000000000000000000000000000000000000087611b21565b60007f000000000000000000000000000000000000000000000000000000000000000073ffffffffffffffffffffffffffffffffffffffff16638803dbee8888878730886040518763ffffffff1660e01b8152600401611fa396959493929190613604565b600060405180830381600087803b158015611fbd57600080fd5b505af1158015611fd1573d6000803e3d6000fd5b505050506040513d6000823e3d601f19601f82011682018060405250810190611ffa9190612a15565b905060008160008151811061200b57fe5b60200260200101519050868110156121415761206a8585600081811061202d57fe5b905060200201602081019061204291906129ec565b7f00000000000000000000000000000000000000000000000000000000000000006000611b21565b7f000000000000000000000000000000000000000000000000000000000000000073ffffffffffffffffffffffffffffffffffffffff16632e1a7d4d8289036040518263ffffffff1660e01b81526004016120c591906135e9565b600060405180830381600087803b1580156120df57600080fd5b505af11580156120f3573d6000803e3d6000fd5b505050508573ffffffffffffffffffffffffffffffffffffffff166108fc8289039081150290604051600060405180830381858888f1935050505015801561213f573d6000803e3d6000fd5b505b5050505050505050565b60006121ad826040518060400160405280602081526020017f5361666545524332303a206c6f772d6c6576656c2063616c6c206661696c65648152508573ffffffffffffffffffffffffffffffffffffffff1661223a9092919063ffffffff16565b9050600081511115612235578080602001905160208110156121ce57600080fd5b8101908080519060200190929190505050612234576040517f08c379a000000000000000000000000000000000000000000000000000000000815260040180806020018281038252602a815260200180613b62602a913960400191505060405180910390fd5b5b505050565b60606122498484600085612252565b90509392505050565b6060824710156122ad576040517f08c379a0000000000000000000000000000000000000000000000000000000008152600401808060200182810382526026815260200180613b3c6026913960400191505060405180910390fd5b6122b6856123fa565b612328576040517f08c379a000000000000000000000000000000000000000000000000000000000815260040180806020018281038252601d8152602001807f416464726573733a2063616c6c20746f206e6f6e2d636f6e747261637400000081525060200191505060405180910390fd5b6000808673ffffffffffffffffffffffffffffffffffffffff1685876040518082805190602001908083835b602083106123775780518252602082019150602081019050602083039250612354565b6001836020036101000a03801982511681845116808217855250505050505090500191505060006040518083038185875af1925050503d80600081146123d9576040519150601f19603f3d011682016040523d82523d6000602084013e6123de565b606091505b50915091506123ee82828661240d565b92505050949350505050565b600080823b905060008111915050919050565b6060831561241d578290506124d2565b6000835111156124305782518084602001fd5b816040517f08c379a00000000000000000000000000000000000000000000000000000000081526004018080602001828103825283818151815260200191508051906020019080838360005b8381101561249757808201518184015260208101905061247c565b50505050905090810190601f1680156124c45780820380516001836020036101000a031916815260200191505b509250505060405180910390fd5b9392505050565b604051806101600160405280600060ff16815260200160008152602001600073ffffffffffffffffffffffffffffffffffffffff1681526020016000801916815260200160008152602001600073ffffffffffffffffffffffffffffffffffffffff168152602001612549612573565b815260200160008152602001600062ffffff168152602001600060ff168152602001600081525090565b6040518060400160405280600290602082028036833780820191505090505090565b60006125a86125a384613706565b6136d5565b905080828560208602820111156125be57600080fd5b60005b858110156125ee57816125d488826126b7565b8452602084019350602083019250506001810190506125c1565b5050509392505050565b600061260b6126068461372c565b6136d5565b9050808382526020820190508285602086028201111561262a57600080fd5b60005b8581101561265a57816126408882612998565b84526020840193506020830192505060018101905061262d565b5050509392505050565b600061267761267284613758565b6136d5565b90508281526020810184848401111561268f57600080fd5b61269a8482856139ba565b509392505050565b6000813590506126b181613a83565b92915050565b6000815190506126c681613a83565b92915050565b600082601f8301126126dd57600080fd5b60026126ea848285612595565b91505092915050565b60008083601f84011261270557600080fd5b8235905067ffffffffffffffff81111561271e57600080fd5b60208301915083602082028301111561273657600080fd5b9250929050565b600082601f83011261274e57600080fd5b815161275e8482602086016125f8565b91505092915050565b60008135905061277681613a9a565b92915050565b60008151905061278b81613a9a565b92915050565b60008083601f8401126127a357600080fd5b8235905067ffffffffffffffff8111156127bc57600080fd5b6020830191508360018202830111156127d457600080fd5b9250929050565b600082601f8301126127ec57600080fd5b81516127fc848260208601612664565b91505092915050565b6000610180828403121561281857600080fd5b6128236101606136d5565b90506000612833848285016129d7565b600083015250602061284784828501612998565b602083015250604061285b848285016126b7565b604083015250606061286f8482850161277c565b606083015250608061288384828501612998565b60808301525060a0612897848285016126b7565b60a08301525060c06128ab848285016126cc565b60c0830152506101006128c084828501612998565b60e0830152506101206128d58482850161296e565b610100830152506101406128eb848285016129d7565b6101208301525061016061290184828501612998565b6101408301525092915050565b600060c0828403121561292057600080fd5b81905092915050565b600060c0828403121561293b57600080fd5b81905092915050565b60008135905061295381613ab1565b92915050565b60008135905061296881613ac8565b92915050565b60008151905061297d81613ac8565b92915050565b60008135905061299281613adf565b92915050565b6000815190506129a781613adf565b92915050565b6000813590506129bc81613af6565b92915050565b6000815190506129d181613b0d565b92915050565b6000815190506129e681613b24565b92915050565b6000602082840312156129fe57600080fd5b6000612a0c848285016126a2565b91505092915050565b600060208284031215612a2757600080fd5b600082015167ffffffffffffffff811115612a4157600080fd5b612a4d8482850161273d565b91505092915050565b60008060208385031215612a6957600080fd5b600083013567ffffffffffffffff811115612a8357600080fd5b612a8f85828601612791565b92509250509250929050565b600060208284031215612aad57600080fd5b600082015167ffffffffffffffff811115612ac757600080fd5b612ad3848285016127db565b91505092915050565b60006101808284031215612aef57600080fd5b6000612afd84828501612805565b91505092915050565b6000806000806000806000610160888a031215612b2257600080fd5b6000612b308a828b0161290e565b97505060c088013567ffffffffffffffff811115612b4d57600080fd5b612b598a828b016126f3565b965096505060e0612b6c8a828b01612983565b945050610100612b7e8a828b01612944565b935050610120612b908a828b01612767565b925050610140612ba28a828b016129ad565b91505092959891949750929550565b6000806000806000806000610160888a031215612bcd57600080fd5b6000612bdb8a828b01612929565b97505060c088013567ffffffffffffffff811115612bf857600080fd5b612c048a828b016126f3565b965096505060e0612c178a828b01612983565b945050610100612c298a828b01612944565b935050610120612c3b8a828b01612767565b925050610140612c4d8a828b016129ad565b91505092959891949750929550565b600060208284031215612c6e57600080fd5b6000612c7c84828501612959565b91505092915050565b600060208284031215612c9757600080fd5b6000612ca5848285016129c2565b91505092915050565b6000612cba8383612ced565b60208301905092915050565b6000612cd2838361325d565b60208301905092915050565b612ce78161392d565b82525050565b612cf681613899565b82525050565b612d0581613899565b82525050565b612d1c612d1782613899565b6139ed565b82525050565b6000612d2e83856137fa565b9350612d3982613788565b8060005b85811015612d7257612d4f828461384f565b612d598882612cae565b9750612d64836137d3565b925050600181019050612d3d565b5085925050509392505050565b6000612d8a826137b2565b612d9481856137fa565b9350612d9f83613792565b8060005b83811015612dd0578151612db78882612cae565b9750612dc2836137e0565b925050600181019050612da3565b5085935050505092915050565b6000612de8826137bd565b612df2818561380b565b9350612dfd836137a2565b8060005b83811015612e2e578151612e158882612cc6565b9750612e20836137ed565b925050600181019050612e01565b5085935050505092915050565b612e44816138ab565b82525050565b612e5b612e56826138ab565b6139ff565b82525050565b6000612e6d838561381c565b9350612e7a8385846139ab565b612e8383613a4b565b840190509392505050565b6000612e99826137c8565b612ea3818561381c565b9350612eb38185602086016139ba565b612ebc81613a4b565b840191505092915050565b6000612ed2826137c8565b612edc818561382d565b9350612eec8185602086016139ba565b612ef581613a4b565b840191505092915050565b612f098161393f565b82525050565b612f1881613963565b82525050565b612f2781613975565b82525050565b6000612f3a60258361383e565b91507f696e636f7272656374207377617046756e6374696f6e5479706520696e20706160008301527f796c6f61640000000000000000000000000000000000000000000000000000006020830152604082019050919050565b6000612fa060258361383e565b91507f746f6b656e4f7574206d7573742062652077726170706564206e61746976652060008301527f61737365740000000000000000000000000000000000000000000000000000006020830152604082019050919050565b600061300660258361383e565b91507f696e73756666696369656e7420616d6f756e744f757420746f2070617920726560008301527f6c617965720000000000000000000000000000000000000000000000000000006020830152604082019050919050565b600061306c60188361383e565b91507f746f6b656e496e206d75737420626520666565546f6b656e00000000000000006000830152602082019050919050565b60006130ac60288361383e565b91507f746f6b656e4f7574206d75737420626520666565546f6b656e20666f7220666960008301527f72737420737761700000000000000000000000000000000000000000000000006020830152604082019050919050565b600061311260238361383e565b91507f6d7573742070617373206e6f6e2030206e617469766520617373657420616d6f60008301527f756e7400000000000000000000000000000000000000000000000000000000006020830152604082019050919050565b6000613178602c8361383e565b91507f696e73756666696369656e7420616d6f756e744f75744d696e696d756d20746f60008301527f207061792072656c6179657200000000000000000000000000000000000000006020830152604082019050919050565b60006131de60338361383e565b91507f746f6b656e496e206d7573742062652077726170706564206e6174697665206160008301527f7373657420666f722066697273742073776170000000000000000000000000006020830152604082019050919050565b613240816138b5565b82525050565b613257613252826138e3565b613a1b565b82525050565b613266816138f2565b82525050565b613275816138f2565b82525050565b61328c613287826138f2565b613a2d565b82525050565b61329b816138fc565b82525050565b6132aa81613920565b82525050565b6132c16132bc82613920565b613a37565b82525050565b60006132d3828b61327b565b6020820191506132e3828a612e4a565b6020820191506132f38289612d0b565b6014820191506133038288612d0b565b601482019150613313828761327b565b6020820191506133238286613246565b60038201915061333382856132b0565b600182019150613343828461327b565b6020820191508190509998505050505050505050565b600060208201905061336e6000830184612cfc565b92915050565b60006080820190506133896000830187612cfc565b6133966020830186612cde565b6133a3604083018561326c565b6133b06060830184612f0f565b95945050505050565b60006080820190506133ce6000830187612cfc565b6133db6020830186612cde565b6133e8604083018561326c565b6133f56060830184612f1e565b95945050505050565b600060c0820190506134136000830189612cfc565b613420602083018861326c565b61342d6040830187613237565b61343a6060830186612e3b565b6134476080830185613292565b81810360a08301526134598184612e8e565b9050979650505050505050565b600060208201905081810360008301526134808184612ddd565b905092915050565b600060208201905081810360008301526134a3818486612e61565b90509392505050565b600060208201905081810360008301526134c68184612ec7565b905092915050565b60006020820190506134e36000830184612f00565b92915050565b6000602082019050818103600083015261350281612f2d565b9050919050565b6000602082019050818103600083015261352281612f93565b9050919050565b6000602082019050818103600083015261354281612ff9565b9050919050565b600060208201905081810360008301526135628161305f565b9050919050565b600060208201905081810360008301526135828161309f565b9050919050565b600060208201905081810360008301526135a281613105565b9050919050565b600060208201905081810360008301526135c28161316b565b9050919050565b600060208201905081810360008301526135e2816131d1565b9050919050565b60006020820190506135fe600083018461326c565b92915050565b600060a082019050613619600083018961326c565b613626602083018861326c565b8181036040830152613639818688612d22565b90506136486060830185612cde565b613655608083018461326c565b979650505050505050565b600060a082019050613675600083018861326c565b613682602083018761326c565b81810360408301526136948186612d7f565b90506136a36060830185612cde565b6136b0608083018461326c565b9695505050505050565b60006020820190506136cf60008301846132a1565b92915050565b6000604051905081810181811067ffffffffffffffff821117156136fc576136fb613a49565b5b8060405250919050565b600067ffffffffffffffff82111561372157613720613a49565b5b602082029050919050565b600067ffffffffffffffff82111561374757613746613a49565b5b602082029050602081019050919050565b600067ffffffffffffffff82111561377357613772613a49565b5b601f19601f8301169050602081019050919050565b6000819050919050565b6000819050602082019050919050565b6000819050602082019050919050565b600081519050919050565b600081519050919050565b600081519050919050565b6000602082019050919050565b6000602082019050919050565b6000602082019050919050565b600082825260208201905092915050565b600082825260208201905092915050565b600082825260208201905092915050565b600082825260208201905092915050565b600082825260208201905092915050565b600061385e60208401846126a2565b905092915050565b6000808585111561387657600080fd5b8386111561388357600080fd5b6020850283019150848603905094509492505050565b60006138a4826138c3565b9050919050565b6000819050919050565b600061ffff82169050919050565b600073ffffffffffffffffffffffffffffffffffffffff82169050919050565b600062ffffff82169050919050565b6000819050919050565b600063ffffffff82169050919050565b600067ffffffffffffffff82169050919050565b600060ff82169050919050565b600061393882613987565b9050919050565b600061394a82613951565b9050919050565b600061395c826138c3565b9050919050565b600061396e82613920565b9050919050565b600061398082613920565b9050919050565b600061399282613999565b9050919050565b60006139a4826138c3565b9050919050565b82818337600083830152505050565b60005b838110156139d85780820151818401526020810190506139bd565b838111156139e7576000848401525b50505050565b60006139f882613a09565b9050919050565b6000819050919050565b6000613a1482613a76565b9050919050565b6000613a2682613a5c565b9050919050565b6000819050919050565b6000613a4282613a69565b9050919050565bfe5b6000601f19601f8301169050919050565b60008160e81b9050919050565b60008160f81b9050919050565b60008160601b9050919050565b613a8c81613899565b8114613a9757600080fd5b50565b613aa3816138ab565b8114613aae57600080fd5b50565b613aba816138b5565b8114613ac557600080fd5b50565b613ad1816138e3565b8114613adc57600080fd5b50565b613ae8816138f2565b8114613af357600080fd5b50565b613aff816138fc565b8114613b0a57600080fd5b50565b613b168161390c565b8114613b2157600080fd5b50565b613b2d81613920565b8114613b3857600080fd5b5056fe416464726573733a20696e73756666696369656e742062616c616e636520666f722063616c6c5361666545524332303a204552433230206f7065726174696f6e20646964206e6f742073756363656564a2646970667358221220b8eb96f4d58d793665bf4882ac8cae2c8dc3033a2b05b5760eaefd8e7afc674664736f6c63430007060033",
  "immutableReferences": {
    "2166": [
      {
        "length": 32,
        "start": 667
      },
      {
        "length": 32,
        "start": 3202
      },
      {
        "length": 32,
        "start": 6498
      }
    ],
    "2169": [
      {
        "length": 32,
        "start": 586
      },
      {
        "length": 32,
        "start": 4336
      },
      {
        "length": 32,
        "start": 4725
      }
    ],
    "2171": [
      {
        "length": 32,
        "start": 1317
      },
      {
        "length": 32,
        "start": 1360
      },
      {
        "length": 32,
        "start": 2330
      },
      {
        "length": 32,
        "start": 5486
      },
      {
        "length": 32,
        "start": 5525
      },
      {
        "length": 32,
        "start": 5970
      },
      {
        "length": 32,
        "start": 7661
      },
      {
        "length": 32,
        "start": 7702
      },
      {
        "length": 32,
        "start": 7961
      },
      {
        "length": 32,
        "start": 8002
      },
      {
        "length": 32,
        "start": 8260
      }
    ],
    "2173": [
      {
        "length": 32,
        "start": 622
      },
      {
        "length": 32,
        "start": 969
      },
      {
        "length": 32,
        "start": 1555
      },
      {
        "length": 32,
        "start": 2683
      },
      {
        "length": 32,
        "start": 3279
      },
      {
        "length": 32,
        "start": 3411
      },
      {
        "length": 32,
        "start": 3821
      },
      {
        "length": 32,
        "start": 4413
      },
      {
        "length": 32,
        "start": 4549
      },
      {
        "length": 32,
        "start": 5027
      },
      {
        "length": 32,
        "start": 5354
      },
      {
        "length": 32,
        "start": 5719
      },
      {
        "length": 32,
        "start": 5937
      },
      {
        "length": 32,
        "start": 6021
      }
    ],
    "2175": [
      {
        "length": 32,
        "start": 2366
      },
      {
        "length": 32,
        "start": 3312
      },
      {
        "length": 32,
        "start": 3351
      },
      {
        "length": 32,
        "start": 4446
      },
      {
        "length": 32,
        "start": 4489
      },
      {
        "length": 32,
        "start": 6544
      }
    ],
    "2177": [
      {
        "length": 32,
        "start": 1131
      },
      {
        "length": 32,
        "start": 1894
      },
      {
        "length": 32,
        "start": 2402
      },
      {
        "length": 32,
        "start": 2508
      },
      {
        "length": 32,
        "start": 2925
      },
      {
        "length": 32,
        "start": 3646
      },
      {
        "length": 32,
        "start": 4063
      },
      {
        "length": 32,
        "start": 5189
      },
      {
        "length": 32,
        "start": 6092
      },
      {
        "length": 32,
        "start": 8300
      }
    ]
  },
  "source": "// SPDX-License-Identifier: Apache 2\n\npragma solidity ^0.7.6;\npragma abicoder v2;\n\nimport './shared/IWormhole.sol';\nimport './shared/SwapHelper.sol';\nimport './shared/TokenBridge.sol';\nimport './shared/WETH.sol';\nimport 'solidity-bytes-utils/contracts/BytesLib.sol';\nimport '@openzeppelin/contracts/token/ERC20/IERC20.sol';\nimport '@openzeppelin/contracts/token/ERC20/SafeERC20.sol';\nimport '@uniswap/v3-periphery/contracts/libraries/TransferHelper.sol';\nimport \"@uniswap/v2-periphery/contracts/interfaces/IUniswapV2Router02.sol\";\n\n\n/// @title A cross-chain UniswapV2 example\n/// @notice Swaps against UniswapV2 pools and uses Wormhole TokenBridge\n/// for cross-chain transfers \ncontract CrossChainSwapV2 {\n    using SafeERC20 for IERC20;\n    using BytesLib for bytes;\n    uint8 public immutable TypeExactIn = 1;\n    uint8 public immutable TypeExactOut = 2;\n    IUniswapV2Router02 public immutable SWAP_ROUTER;\n    address public immutable FEE_TOKEN_ADDRESS;\n    address public immutable TOKEN_BRIDGE_ADDRESS;\n    address public immutable WRAPPED_NATIVE;\n\n    constructor(\n        address _swapRouterAddress, \n        address _feeTokenAddress, \n        address _tokenBridgeAddress, \n        address _wrappedNativeAddress\n    ) {\n        SWAP_ROUTER = IUniswapV2Router02(_swapRouterAddress);\n        FEE_TOKEN_ADDRESS = _feeTokenAddress;\n        TOKEN_BRIDGE_ADDRESS = _tokenBridgeAddress;\n        WRAPPED_NATIVE = _wrappedNativeAddress;\n    }\n\n    /// @dev Used to communicate information about executed swaps to UI/user\n    event SwapResult(\n        address indexed _recipient,\n        address _tokenOut,\n        address _from,\n        uint256 _amountOut,\n        uint8 _success\n    );\n\n    /// @dev Returns the parsed TokenBridge payload which contains swap \n    /// instructions after redeeming the VAA from the TokenBridge\n    function _getParsedPayload(\n        bytes calldata encodedVaa,\n        uint8 swapFunctionType\n    ) private returns (SwapHelper.DecodedVaaParameters memory payload) {\n        // complete the transfer on the token bridge\n        bytes memory vmPayload = TokenBridge(\n            TOKEN_BRIDGE_ADDRESS\n        ).completeTransferWithPayload(encodedVaa);\n\n        // parse the payload \n        payload = SwapHelper.decodeVaaPayload(vmPayload);\n\n        // sanity check payload parameters\n        require(\n            payload.swapFunctionType==swapFunctionType, \n            \"incorrect swapFunctionType in payload\"\n        ); \n    }    \n\n    /// @dev Executes exactIn native asset swap and pays the relayer\n    function recvAndSwapExactNativeIn(\n        bytes calldata encodedVaa\n    ) external payable returns (uint256[] memory amounts) {\n        // redeem and fetch parsed payload\n        SwapHelper.DecodedVaaParameters memory payload =\n            _getParsedPayload(\n                encodedVaa,\n                TypeExactIn\n            );\n\n        // create dynamic address array \n        // uniswap won't take fixed size array\n        address[] memory uniPath = new address[](2);\n        uniPath[0] = payload.path[0];\n        uniPath[1] = payload.path[1];\n\n        // sanity check path\n        require(\n            uniPath[0]==FEE_TOKEN_ADDRESS, \n            \"tokenIn must be feeToken\"\n        );\n        require(\n            uniPath[1]==WRAPPED_NATIVE, \n            \"tokenOut must be wrapped native asset\"\n        );\n\n        // approve the router to spend tokens\n        TransferHelper.safeApprove(\n            uniPath[0], \n            address(SWAP_ROUTER), \n            payload.swapAmount\n        );\n\n        // try to execute the swap\n        try SWAP_ROUTER.swapExactTokensForTokens(\n            payload.swapAmount,\n            payload.estimatedAmount,\n            uniPath,\n            address(this), \n            payload.deadline\n        ) returns (uint256[] memory amounts) {\n            // calculate how much to pay the relayer in the native token\n            uint256 nativeRelayerFee = amounts[1] * payload.relayerFee / payload.swapAmount;\n            uint256 nativeAmountOut = amounts[1] - nativeRelayerFee;\n\n            // unwrap native and send to recipient\n            IWETH(WRAPPED_NATIVE).withdraw(amounts[1]);\n            payable(payload.recipientAddress).transfer(nativeAmountOut);\n\n            /// pay the relayer in the native token\n            payable(msg.sender).transfer(nativeRelayerFee);\n\n            // used in UI to tell user they're getting\n            // their desired token\n            emit SwapResult(\n                payload.recipientAddress, \n                uniPath[1], \n                msg.sender, \n                nativeAmountOut,\n                1\n            );\n            return amounts;\n        } catch {\n            // pay relayer in the feeToken since the swap failed \n            IERC20 feeToken = IERC20(FEE_TOKEN_ADDRESS); \n            feeToken.safeTransfer(msg.sender, payload.relayerFee);\n\n            // swap failed - return feeToken to recipient\n            feeToken.safeTransfer(\n                payload.recipientAddress, \n                payload.swapAmount - payload.relayerFee\n            );\n\n            // used in UI to tell user they're getting\n            // feeToken instead of their desired native asset\n            emit SwapResult(\n                payload.recipientAddress, \n                uniPath[0], \n                msg.sender, \n                payload.swapAmount - payload.relayerFee,\n                0\n            );\n        }\n    }\n\n    /// @dev Executes exactOut native asset swap and pays the relayer\n    function recvAndSwapExactNativeOut(\n        bytes calldata encodedVaa\n    ) external returns (uint256 amountInUsed) {\n        // redeem and fetch parsed payload\n        SwapHelper.DecodedVaaParameters memory payload =\n            _getParsedPayload(\n                encodedVaa,\n                TypeExactOut\n            );\n\n        // create dynamic address array - uniswap won't take fixed size array\n        address[] memory uniPath = new address[](2);\n        uniPath[0] = payload.path[0];\n        uniPath[1] = payload.path[1];\n\n        // sanity check path\n        require(\n            uniPath[0]==FEE_TOKEN_ADDRESS, \n            \"tokenIn must be feeToken\"\n        );\n        require(\n            payload.path[1]==WRAPPED_NATIVE, \n            \"tokenOut must be wrapped native asset\"\n        );\n\n        // pay the relayer in feeToken so that user gets desired exact amount out\n        IERC20 feeToken = IERC20(FEE_TOKEN_ADDRESS);\n        feeToken.safeTransfer(msg.sender, payload.relayerFee);  \n        uint256 maxAmountInLessFees = payload.swapAmount - payload.relayerFee;\n\n        // amountOut is the estimated swap amount for exact out methods\n        uint256 amountOut = payload.estimatedAmount;\n\n        // approve the router to spend tokens\n        TransferHelper.safeApprove(\n            uniPath[0], \n            address(SWAP_ROUTER), \n            maxAmountInLessFees\n        ); \n\n        // try to perform the swap \n        try SWAP_ROUTER.swapTokensForExactTokens(\n            amountOut,\n            maxAmountInLessFees,\n            uniPath,\n            address(this), \n            payload.deadline\n        ) returns (uint256[] memory amounts) {\n            // amountIn used is first element in array\n            amountInUsed = amounts[0];\n\n            // refund recipient with any feeToken not used in the swap\n            if (amountInUsed < maxAmountInLessFees) {\n                TransferHelper.safeApprove(\n                    FEE_TOKEN_ADDRESS, \n                    address(SWAP_ROUTER), \n                    0\n                );\n                IERC20(FEE_TOKEN_ADDRESS).safeTransfer(\n                    payload.recipientAddress, \n                    maxAmountInLessFees - amountInUsed\n                );\n            }\n\n            // unwrap native and send to recipient\n            IWETH(WRAPPED_NATIVE).withdraw(amounts[1]);\n            payable(payload.recipientAddress).transfer(amounts[1]);\n\n            // used in UI to tell user they're getting\n            // their desired native asset\n            emit SwapResult(\n                payload.recipientAddress, \n                uniPath[1], \n                msg.sender, \n                amounts[1],\n                1\n            );\n            return amountInUsed;\n        } catch {\n            // swap failed - return feeToken to recipient\n            IERC20(FEE_TOKEN_ADDRESS).safeTransfer(\n                payload.recipientAddress, \n                maxAmountInLessFees\n            );\n\n            // used in UI to tell user they're getting\n            // feeToken instead of their desired native asset\n            emit SwapResult(\n                payload.recipientAddress, \n                uniPath[0], \n                msg.sender, \n                maxAmountInLessFees,\n                0\n            );\n        }\n    }\n\n\n    /// @dev Executes exactIn native asset swap\n    function _swapExactInBeforeTransfer(\n        uint256 amountIn,\n        uint256 amountOutMinimum,\n        address contractCaller,\n        address[] calldata path,\n        uint256 deadline\n    ) internal returns (uint256 amountOut) {\n        // approve the router to spend tokens\n        TransferHelper.safeApprove(\n            path[0], \n            address(SWAP_ROUTER), \n            amountIn\n        );\n\n        // perform the swap\n        uint256[] memory amounts = SWAP_ROUTER.swapExactTokensForTokens(\n            amountIn,\n            amountOutMinimum,\n            path,\n            address(this), \n            deadline\n        );\n        amountOut = amounts[1];\n    }\n\n    /// @dev Calls _swapExactInBeforeTransfer and encodes custom payload with \n    /// instructions for executing native asset swaps on the destination chain\n    function swapExactNativeInAndTransfer(\n        SwapHelper.ExactInParameters calldata swapParams,\n        address[] calldata path,\n        uint256 relayerFee,\n        uint16 targetChainId,\n        bytes32 targetContractAddress,\n        uint32 nonce\n    ) external payable { \n        require(\n            swapParams.amountOutMinimum > relayerFee, \n            \"insufficient amountOutMinimum to pay relayer\"\n        );\n        require(\n            path[0]==WRAPPED_NATIVE, \n            \"tokenIn must be wrapped native asset for first swap\"\n        ); \n        require(\n            path[1]==FEE_TOKEN_ADDRESS, \n            \"tokenOut must be feeToken for first swap\"\n        );\n        require(msg.value > 0, \"must pass non 0 native asset amount\");\n\n        // wrap native asset\n        IWETH(WRAPPED_NATIVE).deposit{\n            value : msg.value\n        }();\n\n        // peform the first swap\n        uint256 amountOut = _swapExactInBeforeTransfer(\n            msg.value, \n            swapParams.amountOutMinimum, \n            msg.sender,\n            path[0:2],\n            swapParams.deadline\n        );\n\n        // create payload with target swap instructions\n        bytes memory payload = abi.encodePacked(\n            swapParams.targetAmountOutMinimum,\n            swapParams.targetChainRecipient,\n            path[2],\n            path[3],\n            swapParams.deadline,\n            swapParams.poolFee,\n            TypeExactIn,\n            relayerFee\n        );  \n        \n        // approve token bridge to spend feeTokens\n        TransferHelper.safeApprove(\n            FEE_TOKEN_ADDRESS, \n            TOKEN_BRIDGE_ADDRESS, \n            amountOut\n        );\n\n        // send transfer with payload to the TokenBridge\n        TokenBridge(TOKEN_BRIDGE_ADDRESS).transferTokensWithPayload(\n            FEE_TOKEN_ADDRESS, \n            amountOut, \n            targetChainId, \n            targetContractAddress,\n            nonce, \n            payload\n        );\n    }\n \n    /// @dev Executes exactOut native asset swaps\n    function _swapExactOutBeforeTransfer(\n        uint256 amountOut,\n        uint256 amountInMaximum,\n        address contractCaller,\n        address[] calldata path,\n        uint256 deadline\n    ) internal {\n        // approve the router to spend tokens\n        TransferHelper.safeApprove(\n            path[0], \n            address(SWAP_ROUTER), \n            amountInMaximum\n        );\n\n        // perform the swap\n        uint256[] memory amounts = SWAP_ROUTER.swapTokensForExactTokens(\n            amountOut,\n            amountInMaximum,\n            path,\n            address(this), \n            deadline\n        );\n\n        // amountIn used is first element in array\n        uint256 amountInUsed = amounts[0];\n\n        // refund contractCaller with any amountIn that wasn't spent \n        if (amountInUsed < amountInMaximum) {\n            // unwrap remaining native asset and send to contractCaller\n            TransferHelper.safeApprove(path[0], address(SWAP_ROUTER), 0);\n            IWETH(WRAPPED_NATIVE).withdraw(\n                amountInMaximum - amountInUsed\n            ); \n            payable(contractCaller).transfer(\n                amountInMaximum - amountInUsed\n            );\n        }\n    }\n\n    /// @dev Calls _swapExactOutBeforeTransfer and encodes custom payload with \n    /// instructions for executing native asset swaps on the destination chain\n    function swapExactNativeOutAndTransfer(\n        SwapHelper.ExactOutParameters calldata swapParams,\n        address[] calldata path,\n        uint256 relayerFee,\n        uint16 targetChainId,\n        bytes32 targetContractAddress,\n        uint32 nonce\n    ) external payable { \n        require(\n            swapParams.amountOut > relayerFee, \n            \"insufficient amountOut to pay relayer\"\n        );\n        require(\n            path[0]==WRAPPED_NATIVE, \n            \"tokenIn must be wrapped native asset for first swap\"\n        );\n        require(\n            path[1]==FEE_TOKEN_ADDRESS, \n            \"tokenOut must be feeToken for first swap\"\n        );\n        require(msg.value > 0, \"must pass non 0 native asset amount\");\n\n        // wrap native asset\n        IWETH(WRAPPED_NATIVE).deposit{\n            value : msg.value\n        }();\n\n        // peform the first swap\n        _swapExactOutBeforeTransfer(\n            swapParams.amountOut, \n            msg.value,  \n            msg.sender,\n            path[0:2], \n            swapParams.deadline\n        );\n\n        // create payload with target swap instructions\n        bytes memory payload = abi.encodePacked(\n            swapParams.targetAmountOut,\n            swapParams.targetChainRecipient,\n            path[2],\n            path[3],\n            swapParams.deadline,\n            swapParams.poolFee,\n            TypeExactOut,\n            relayerFee\n        );  \n\n        // approve token bridge to spend feeTokens\n        TransferHelper.safeApprove(\n            FEE_TOKEN_ADDRESS, \n            TOKEN_BRIDGE_ADDRESS, \n            swapParams.amountOut\n        );\n\n        // send transfer with payload to the TokenBridge\n        TokenBridge(TOKEN_BRIDGE_ADDRESS).transferTokensWithPayload(\n            FEE_TOKEN_ADDRESS, \n            swapParams.amountOut, \n            targetChainId, \n            targetContractAddress, \n            nonce, \n            payload\n        );\n    }\n\n    // necessary for receiving native assets\n    receive() external payable {}\n}",
  "sourcePath": "/Users/admin/Desktop/example-nativeswap-v3/contracts/contracts/CrossChainSwapV2.sol",
  "compiler": {
    "name": "solc",
    "version": "0.7.6+commit.7338295f.Emscripten.clang"
  },
  "schemaVersion": "3.4.4",
  "updatedAt": "2023-07-30T12:25:00.944Z",
  "devdoc": {
    "events": {
      "SwapResult(address,address,address,uint256,uint8)": {
        "details": "Used to communicate information about executed swaps to UI/user"
      }
    },
    "kind": "dev",
    "methods": {
      "recvAndSwapExactNativeIn(bytes)": {
        "details": "Executes exactIn native asset swap and pays the relayer"
      },
      "recvAndSwapExactNativeOut(bytes)": {
        "details": "Executes exactOut native asset swap and pays the relayer"
      },
      "swapExactNativeInAndTransfer((uint256,uint256,uint256,bytes32,uint256,uint24),address[],uint256,uint16,bytes32,uint32)": {
        "details": "Calls _swapExactInBeforeTransfer and encodes custom payload with  instructions for executing native asset swaps on the destination chain"
      },
      "swapExactNativeOutAndTransfer((uint256,uint256,uint256,bytes32,uint256,uint24),address[],uint256,uint16,bytes32,uint32)": {
        "details": "Calls _swapExactOutBeforeTransfer and encodes custom payload with  instructions for executing native asset swaps on the destination chain"
      }
    },
    "title": "A cross-chain UniswapV2 example",
    "version": 1
  },
  "userdoc": {
    "kind": "user",
    "methods": {},
    "notice": "Swaps against UniswapV2 pools and uses Wormhole TokenBridge for cross-chain transfers ",
    "version": 1
  }
}