{
  "contractName": "SwapHelper",
  "abi": [
    {
      "inputs": [
        {
          "internalType": "bytes",
          "name": "vmPayload",
          "type": "bytes"
        }
      ],
      "name": "decodeVaaPayload",
      "outputs": [
        {
          "components": [
            {
              "internalType": "uint8",
              "name": "version",
              "type": "uint8"
            },
            {
              "internalType": "uint256",
              "name": "swapAmount",
              "type": "uint256"
            },
            {
              "internalType": "address",
              "name": "contractAddress",
              "type": "address"
            },
            {
              "internalType": "bytes32",
              "name": "fromAddress",
              "type": "bytes32"
            },
            {
              "internalType": "uint256",
              "name": "estimatedAmount",
              "type": "uint256"
            },
            {
              "internalType": "address",
              "name": "recipientAddress",
              "type": "address"
            },
            {
              "internalType": "address[2]",
              "name": "path",
              "type": "address[2]"
            },
            {
              "internalType": "uint256",
              "name": "deadline",
              "type": "uint256"
            },
            {
              "internalType": "uint24",
              "name": "poolFee",
              "type": "uint24"
            },
            {
              "internalType": "uint8",
              "name": "swapFunctionType",
              "type": "uint8"
            },
            {
              "internalType": "uint256",
              "name": "relayerFee",
              "type": "uint256"
            }
          ],
          "internalType": "struct SwapHelper.DecodedVaaParameters",
          "name": "decoded",
          "type": "tuple"
        }
      ],
      "stateMutability": "view",
      "type": "function"
    }
  ],
  "bytecode": "0x610d6a610026600b82828239805160001a60731461001957fe5b30600052607381538281f3fe73000000000000000000000000000000000000000030146080604052600436106100355760003560e01c8063e9b6b08e1461003a575b600080fd5b610054600480360381019061004f91906109c9565b61006a565b6040516100619190610c06565b60405180910390f35b6100726108a5565b6000610087818461036490919063ffffffff16565b826000019060ff16908160ff16815250506001810190506100b1818461046e90919063ffffffff16565b826020018181525050602081019050602e810190506100d9818461057890919063ffffffff16565b826040019073ffffffffffffffffffffffffffffffffffffffff16908173ffffffffffffffffffffffffffffffffffffffff168152505060148101905060028101905061012f818461069190919063ffffffff16565b826060018181525050602081019050610151818461046e90919063ffffffff16565b826080018181525050602c81019050610173818461057890919063ffffffff16565b8260a0019073ffffffffffffffffffffffffffffffffffffffff16908173ffffffffffffffffffffffffffffffffffffffff16815250506014810190506101c3818461057890919063ffffffff16565b8260c001516000600281106101d457fe5b602002019073ffffffffffffffffffffffffffffffffffffffff16908173ffffffffffffffffffffffffffffffffffffffff1681525050601481019050610224818461057890919063ffffffff16565b8260c0015160016002811061023557fe5b602002019073ffffffffffffffffffffffffffffffffffffffff16908173ffffffffffffffffffffffffffffffffffffffff1681525050601481019050610285818461046e90919063ffffffff16565b8260e00181815250506020810190506001810190506102ad818461079b90919063ffffffff16565b61ffff1682610100019062ffffff16908162ffffff16815250506002810190506102e0818461036490919063ffffffff16565b82610120019060ff16908160ff168152505060018101905061030b818461046e90919063ffffffff16565b826101400181815250506020810190508083511461035e576040517f08c379a000000000000000000000000000000000000000000000000000000000815260040161035590610be6565b60405180910390fd5b50919050565b6000816001830110156103df576040517f08c379a00000000000000000000000000000000000000000000000000000000081526004018080602001828103825260108152602001807f746f55696e74385f6f766572666c6f770000000000000000000000000000000081525060200191505060405180910390fd5b6001820183511015610459576040517f08c379a00000000000000000000000000000000000000000000000000000000081526004018080602001828103825260138152602001807f746f55696e74385f6f75744f66426f756e64730000000000000000000000000081525060200191505060405180910390fd5b60008260018501015190508091505092915050565b6000816020830110156104e9576040517f08c379a00000000000000000000000000000000000000000000000000000000081526004018080602001828103825260128152602001807f746f55696e743235365f6f766572666c6f77000000000000000000000000000081525060200191505060405180910390fd5b6020820183511015610563576040517f08c379a00000000000000000000000000000000000000000000000000000000081526004018080602001828103825260158152602001807f746f55696e743235365f6f75744f66426f756e6473000000000000000000000081525060200191505060405180910390fd5b60008260208501015190508091505092915050565b6000816014830110156105f3576040517f08c379a00000000000000000000000000000000000000000000000000000000081526004018080602001828103825260128152602001807f746f416464726573735f6f766572666c6f77000000000000000000000000000081525060200191505060405180910390fd5b601482018351101561066d576040517f08c379a00000000000000000000000000000000000000000000000000000000081526004018080602001828103825260158152602001807f746f416464726573735f6f75744f66426f756e6473000000000000000000000081525060200191505060405180910390fd5b60006c01000000000000000000000000836020860101510490508091505092915050565b60008160208301101561070c576040517f08c379a00000000000000000000000000000000000000000000000000000000081526004018080602001828103825260128152602001807f746f427974657333325f6f766572666c6f77000000000000000000000000000081525060200191505060405180910390fd5b6020820183511015610786576040517f08c379a00000000000000000000000000000000000000000000000000000000081526004018080602001828103825260158152602001807f746f427974657333325f6f75744f66426f756e6473000000000000000000000081525060200191505060405180910390fd5b60008260208501015190508091505092915050565b600081600283011015610816576040517f08c379a00000000000000000000000000000000000000000000000000000000081526004018080602001828103825260118152602001807f746f55696e7431365f6f766572666c6f7700000000000000000000000000000081525060200191505060405180910390fd5b6002820183511015610890576040517f08c379a00000000000000000000000000000000000000000000000000000000081526004018080602001828103825260148152602001807f746f55696e7431365f6f75744f66426f756e647300000000000000000000000081525060200191505060405180910390fd5b60008260028501015190508091505092915050565b604051806101600160405280600060ff16815260200160008152602001600073ffffffffffffffffffffffffffffffffffffffff1681526020016000801916815260200160008152602001600073ffffffffffffffffffffffffffffffffffffffff16815260200161091561093f565b815260200160008152602001600062ffffff168152602001600060ff168152602001600081525090565b6040518060400160405280600290602082028036833780820191505090505090565b600061097461096f84610c53565b610c22565b90508281526020810184848401111561098c57600080fd5b610997848285610d23565b509392505050565b600082601f8301126109b057600080fd5b81356109c0848260208601610961565b91505092915050565b6000602082840312156109db57600080fd5b600082013567ffffffffffffffff8111156109f557600080fd5b610a018482850161099f565b91505092915050565b6000610a168383610a22565b60208301905092915050565b610a2b81610cc1565b82525050565b610a3a81610c8d565b610a448184610ca5565b9250610a4f82610c83565b8060005b83811015610a80578151610a678782610a0a565b9650610a7283610c98565b925050600181019050610a53565b505050505050565b610a9181610cd3565b82525050565b6000610aa4601683610cb0565b91507f696e76616c6964207061796c6f6164206c656e677468000000000000000000006000830152602082019050919050565b61018082016000820151610aee6000850182610bd7565b506020820151610b016020850182610bc8565b506040820151610b146040850182610a22565b506060820151610b276060850182610a88565b506080820151610b3a6080850182610bc8565b5060a0820151610b4d60a0850182610a22565b5060c0820151610b6060c0850182610a31565b5060e0820151610b74610100850182610bc8565b50610100820151610b89610120850182610bb9565b50610120820151610b9e610140850182610bd7565b50610140820151610bb3610160850182610bc8565b50505050565b610bc281610cfd565b82525050565b610bd181610d0c565b82525050565b610be081610d16565b82525050565b60006020820190508181036000830152610bff81610a97565b9050919050565b600061018082019050610c1c6000830184610ad7565b92915050565b6000604051905081810181811067ffffffffffffffff82111715610c4957610c48610d32565b5b8060405250919050565b600067ffffffffffffffff821115610c6e57610c6d610d32565b5b601f19601f8301169050602081019050919050565b6000819050919050565b600060029050919050565b6000602082019050919050565b600081905092915050565b600082825260208201905092915050565b6000610ccc82610cdd565b9050919050565b6000819050919050565b600073ffffffffffffffffffffffffffffffffffffffff82169050919050565b600062ffffff82169050919050565b6000819050919050565b600060ff82169050919050565b82818337600083830152505050565bfefea26469706673582212207010a3105899fa5e5331004eef98007b0c066eb9ef438dd3caf847023e95742864736f6c63430007060033",
  "immutableReferences": {},
  "source": "// SPDX-License-Identifier: Apache 2\n\npragma solidity ^0.7.6;\npragma abicoder v2;\n\nimport './IWormhole.sol';\nimport 'solidity-bytes-utils/contracts/BytesLib.sol';\n\n/// @title Helper library for cross-chain swaps\n/// @notice Contains functions necessary for parsing encoded VAAs\n/// and structs containing swap parameters\nlibrary SwapHelper {\n    using BytesLib for bytes;   \n\n    /// @dev Parameters needed for exactIn swap type\n    struct ExactInParameters {\n        uint256 amountIn;\n        uint256 amountOutMinimum;\n        uint256 targetAmountOutMinimum;\n        bytes32 targetChainRecipient;\n        uint256 deadline;\n        uint24 poolFee;\n    }\n\n    /// @dev Parameters needed for exactOut swap type\n    struct ExactOutParameters {\n        uint256 amountOut;\n        uint256 amountInMaximum;\n        uint256 targetAmountOut;\n        bytes32 targetChainRecipient;\n        uint256 deadline;\n        uint24 poolFee;\n    }\n\n    /// @dev Parameters parsed from a VAA for executing swaps\n    /// on the destination chain\n    struct DecodedVaaParameters {\n        // in order of decoding\n        uint8 version;\n        uint256 swapAmount;\n        address contractAddress;\n        bytes32 fromAddress;\n        uint256 estimatedAmount;\n        address recipientAddress;\n        address[2] path;\n        uint256 deadline;\n        uint24 poolFee;\n        uint8 swapFunctionType;\n        uint256 relayerFee;\n    }\n\n    /// @dev Decodes parameters encoded in a VAA\n    function decodeVaaPayload(\n        bytes memory vmPayload\n    ) public view returns (DecodedVaaParameters memory decoded) {\n        uint index = 0;\n\n        decoded.version = vmPayload.toUint8(index);\n        index += 1;\n\n        decoded.swapAmount = vmPayload.toUint256(index);\n        index += 32;\n\n        // skip\n        index += 46;\n\n        decoded.contractAddress = vmPayload.toAddress(index);\n        index += 20;\n\n        // skip\n        index += 2;\n\n        decoded.fromAddress = vmPayload.toBytes32(index);\n        index += 32;\n\n        decoded.estimatedAmount = vmPayload.toUint256(index);\n        index += 44;\n\n        decoded.recipientAddress = vmPayload.toAddress(index);\n        index += 20;\n\n        decoded.path[0] = vmPayload.toAddress(index);\n        index += 20;\n\n        decoded.path[1] = vmPayload.toAddress(index);\n        index += 20;\n\n        decoded.deadline = vmPayload.toUint256(index);\n        index += 32;\n\n        // skip\n        index += 1;\n\n        decoded.poolFee = vmPayload.toUint16(index);\n        index += 2;\n\n        decoded.swapFunctionType = vmPayload.toUint8(index);\n        index += 1;\n\n        decoded.relayerFee = vmPayload.toUint256(index);\n        index += 32;\n\n        require(vmPayload.length == index, \"invalid payload length\");\n    }\n}",
  "sourcePath": "/Users/admin/Desktop/example-nativeswap-v3/contracts/contracts/shared/SwapHelper.sol",
  "compiler": {
    "name": "solc",
    "version": "0.7.6+commit.7338295f.Emscripten.clang"
  },
  "schemaVersion": "3.4.4",
  "updatedAt": "2023-07-30T12:25:00.998Z",
  "devdoc": {
    "kind": "dev",
    "methods": {
      "decodeVaaPayload(bytes)": {
        "details": "Decodes parameters encoded in a VAA"
      }
    },
    "title": "Helper library for cross-chain swaps",
    "version": 1
  },
  "userdoc": {
    "kind": "user",
    "methods": {},
    "notice": "Contains functions necessary for parsing encoded VAAs and structs containing swap parameters",
    "version": 1
  }
}